{
  "_format": "hh-sol-artifact-1",
  "contractName": "Sector",
  "sourceName": "contracts/Sector.sol",
  "abi": [
    {
      "inputs": [
        {
          "internalType": "address payable",
          "name": "owner_",
          "type": "address"
        },
        {
          "internalType": "bytes28",
          "name": "afid_",
          "type": "bytes28"
        },
        {
          "internalType": "uint256",
          "name": "lockPeriod_",
          "type": "uint256"
        }
      ],
      "stateMutability": "payable",
      "type": "constructor"
    },
    {
      "anonymous": false,
      "inputs": [
        {
          "indexed": false,
          "internalType": "bytes28",
          "name": "seed",
          "type": "bytes28"
        },
        {
          "indexed": false,
          "internalType": "bool",
          "name": "success",
          "type": "bool"
        },
        {
          "indexed": false,
          "internalType": "uint256",
          "name": "reward",
          "type": "uint256"
        },
        {
          "indexed": false,
          "internalType": "uint256",
          "name": "punish",
          "type": "uint256"
        }
      ],
      "name": "Verification",
      "type": "event"
    },
    {
      "inputs": [],
      "name": "afid",
      "outputs": [
        {
          "internalType": "bytes28",
          "name": "",
          "type": "bytes28"
        }
      ],
      "stateMutability": "view",
      "type": "function"
    },
    {
      "inputs": [],
      "name": "lockedTFC",
      "outputs": [
        {
          "internalType": "uint256",
          "name": "",
          "type": "uint256"
        }
      ],
      "stateMutability": "view",
      "type": "function"
    },
    {
      "inputs": [],
      "name": "owner",
      "outputs": [
        {
          "internalType": "address payable",
          "name": "",
          "type": "address"
        }
      ],
      "stateMutability": "view",
      "type": "function"
    },
    {
      "inputs": [],
      "name": "turboFil",
      "outputs": [
        {
          "internalType": "address payable",
          "name": "",
          "type": "address"
        }
      ],
      "stateMutability": "view",
      "type": "function"
    },
    {
      "inputs": [
        {
          "internalType": "bytes28",
          "name": "seed_",
          "type": "bytes28"
        },
        {
          "internalType": "bool",
          "name": "success_",
          "type": "bool"
        }
      ],
      "name": "verify",
      "outputs": [],
      "stateMutability": "payable",
      "type": "function"
    }
  ],
  "bytecode": "0x60806040526040516106e43803806106e48339810160408190526100229161007c565b60098054336001600160a01b031991821617909155600780549091166001600160a01b038516179055600880546001600160e01b031916602084901c179055600061006d82346100d2565b60055550600655506100f29050565b600080600060608486031215610090578283fd5b83516001600160a01b03811681146100a6578384fd5b602085015190935063ffffffff19811681146100c0578283fd5b80925050604084015190509250925092565b6000826100ed57634e487b7160e01b81526012600452602481fd5b500490565b6105e3806101016000396000f3fe60806040526004361061005a5760003560e01c806383a9e7841161004357806383a9e784146100cc5780638da5cb5b146100e1578063bdc63c84146101015761005a565b80630ff49f261461005f5780632e53c5b014610094575b600080fd5b34801561006b57600080fd5b506008546100799060201b81565b60405163ffffffff1990911681526020015b60405180910390f35b3480156100a057600080fd5b506009546100b4906001600160a01b031681565b6040516001600160a01b03909116815260200161008b565b6100df6100da3660046104b9565b610124565b005b3480156100ed57600080fd5b506007546100b4906001600160a01b031681565b34801561010d57600080fd5b506101166102d3565b60405190815260200161008b565b6009546001600160a01b031633146101a95760405162461bcd60e51b815260206004820152602660248201527f536563746f723a2063616e206f6e6c792062652063616c6c656420627920547560448201527f72626f46696c000000000000000000000000000000000000000000000000000060648201526084015b60405180910390fd5b6000341161021e5760405162461bcd60e51b8152602060048201526024808201527f536563746f723a20766572696679207265776172642063616e6e6f742062652060448201527f7a65726f0000000000000000000000000000000000000000000000000000000060648201526084016101a0565b600080821561023957349150610233826102f8565b5061027d565b610241610447565b6009546040519192506001600160a01b0316903480156108fc02916000818181858888f1935050505015801561027b573d6000803e3d6000fd5b505b6040805163ffffffff19861681528415156020820152908101839052606081018290527f44597cff11b810d3efcb2de85f7ffc5694909f1cb95ecb95bb06a422cd047ece9060800160405180910390a150505050565b6006546005546000916102e591610516565b6003546102f291906104fe565b90505b90565b6006546000901561033d5760055461031090826104fe565b6006805491925060006103228361054c565b90915550506004805490600061033783610563565b91905055505b60025460015483916000918291610353916104fe565b815260200190815260200160002081905550816000600301600082825461037a91906104fe565b909155505060045460025410156103ac576001600060020160008282546103a191906104fe565b909155506104009050565b6001546000908152602081905260409020546103c890826104fe565b90506001600060010160008282546103e091906104fe565b9091555050600380548291906000906103fa908490610535565b90915550505b8015610442576007546040516001600160a01b039091169082156108fc029083906000818181858888f19350505050158015610440573d6000803e3d6000fd5b505b919050565b60065460055460009161045991610516565b61046390826104fe565b60035490915061047390826104fe565b905080156102f5576009546040516001600160a01b039091169082156108fc029083906000818181858888f193505050501580156104b5573d6000803e3d6000fd5b5090565b600080604083850312156104cb578182fd5b823563ffffffff19811681146104df578283fd5b9150602083013580151581146104f3578182fd5b809150509250929050565b600082198211156105115761051161057e565b500190565b60008160001904831182151516156105305761053061057e565b500290565b6000828210156105475761054761057e565b500390565b60008161055b5761055b61057e565b506000190190565b60006000198214156105775761057761057e565b5060010190565b7f4e487b7100000000000000000000000000000000000000000000000000000000600052601160045260246000fdfea26469706673582212206bb64dbff77d72bb35b400495b60c4250639918b0b900083bd7b7bee70bf9e5f64736f6c63430008030033",
  "linkReferences": {},
  "deployedLinkReferences": {}
}