{
  "_format": "hh-sol-artifact-1",
  "contractName": "TurboFil",
  "sourceName": "contracts/TurboFil.sol",
  "abi": [
    {
      "inputs": [
        {
          "internalType": "uint256",
          "name": "sectorReward_",
          "type": "uint256"
        },
        {
          "internalType": "uint256",
          "name": "seedReward_",
          "type": "uint256"
        },
        {
          "internalType": "uint256",
          "name": "verifyReward_",
          "type": "uint256"
        },
        {
          "internalType": "uint256",
          "name": "lockPeriod_",
          "type": "uint256"
        },
        {
          "internalType": "uint256",
          "name": "submitProofTimeout_",
          "type": "uint256"
        },
        {
          "internalType": "uint256",
          "name": "verifyProofTimeout_",
          "type": "uint256"
        },
        {
          "internalType": "uint256",
          "name": "verifyThreshold_",
          "type": "uint256"
        }
      ],
      "stateMutability": "payable",
      "type": "constructor"
    },
    {
      "anonymous": false,
      "inputs": [
        {
          "indexed": true,
          "internalType": "bytes32",
          "name": "role",
          "type": "bytes32"
        },
        {
          "indexed": true,
          "internalType": "bytes32",
          "name": "previousAdminRole",
          "type": "bytes32"
        },
        {
          "indexed": true,
          "internalType": "bytes32",
          "name": "newAdminRole",
          "type": "bytes32"
        }
      ],
      "name": "RoleAdminChanged",
      "type": "event"
    },
    {
      "anonymous": false,
      "inputs": [
        {
          "indexed": true,
          "internalType": "bytes32",
          "name": "role",
          "type": "bytes32"
        },
        {
          "indexed": true,
          "internalType": "address",
          "name": "account",
          "type": "address"
        },
        {
          "indexed": true,
          "internalType": "address",
          "name": "sender",
          "type": "address"
        }
      ],
      "name": "RoleGranted",
      "type": "event"
    },
    {
      "anonymous": false,
      "inputs": [
        {
          "indexed": true,
          "internalType": "bytes32",
          "name": "role",
          "type": "bytes32"
        },
        {
          "indexed": true,
          "internalType": "address",
          "name": "account",
          "type": "address"
        },
        {
          "indexed": true,
          "internalType": "address",
          "name": "sender",
          "type": "address"
        }
      ],
      "name": "RoleRevoked",
      "type": "event"
    },
    {
      "anonymous": false,
      "inputs": [
        {
          "indexed": false,
          "internalType": "address",
          "name": "owner",
          "type": "address"
        },
        {
          "indexed": false,
          "internalType": "bytes28",
          "name": "afid",
          "type": "bytes28"
        },
        {
          "indexed": false,
          "internalType": "address",
          "name": "sector",
          "type": "address"
        }
      ],
      "name": "SectorSubmission",
      "type": "event"
    },
    {
      "anonymous": false,
      "inputs": [
        {
          "indexed": false,
          "internalType": "address",
          "name": "verification",
          "type": "address"
        }
      ],
      "name": "VerificationTask",
      "type": "event"
    },
    {
      "inputs": [],
      "name": "DEFAULT_ADMIN_ROLE",
      "outputs": [
        {
          "internalType": "bytes32",
          "name": "",
          "type": "bytes32"
        }
      ],
      "stateMutability": "view",
      "type": "function"
    },
    {
      "inputs": [],
      "name": "MAINTAIN_ROLE",
      "outputs": [
        {
          "internalType": "bytes32",
          "name": "",
          "type": "bytes32"
        }
      ],
      "stateMutability": "view",
      "type": "function"
    },
    {
      "inputs": [],
      "name": "SECTOR_ROLE",
      "outputs": [
        {
          "internalType": "bytes32",
          "name": "",
          "type": "bytes32"
        }
      ],
      "stateMutability": "view",
      "type": "function"
    },
    {
      "inputs": [],
      "name": "SEED_ROLE",
      "outputs": [
        {
          "internalType": "bytes32",
          "name": "",
          "type": "bytes32"
        }
      ],
      "stateMutability": "view",
      "type": "function"
    },
    {
      "inputs": [],
      "name": "VERIFY_ROLE",
      "outputs": [
        {
          "internalType": "bytes32",
          "name": "",
          "type": "bytes32"
        }
      ],
      "stateMutability": "view",
      "type": "function"
    },
    {
      "inputs": [],
      "name": "depositRequirement",
      "outputs": [
        {
          "internalType": "uint256",
          "name": "",
          "type": "uint256"
        }
      ],
      "stateMutability": "view",
      "type": "function"
    },
    {
      "inputs": [
        {
          "internalType": "bytes32",
          "name": "role",
          "type": "bytes32"
        }
      ],
      "name": "getRoleAdmin",
      "outputs": [
        {
          "internalType": "bytes32",
          "name": "",
          "type": "bytes32"
        }
      ],
      "stateMutability": "view",
      "type": "function"
    },
    {
      "inputs": [
        {
          "internalType": "bytes32",
          "name": "role",
          "type": "bytes32"
        },
        {
          "internalType": "address",
          "name": "account",
          "type": "address"
        }
      ],
      "name": "grantRole",
      "outputs": [],
      "stateMutability": "nonpayable",
      "type": "function"
    },
    {
      "inputs": [
        {
          "internalType": "bytes32",
          "name": "role",
          "type": "bytes32"
        },
        {
          "internalType": "address",
          "name": "account",
          "type": "address"
        }
      ],
      "name": "hasRole",
      "outputs": [
        {
          "internalType": "bool",
          "name": "",
          "type": "bool"
        }
      ],
      "stateMutability": "view",
      "type": "function"
    },
    {
      "inputs": [
        {
          "internalType": "address",
          "name": "addr_",
          "type": "address"
        }
      ],
      "name": "hasVerifyRole",
      "outputs": [
        {
          "internalType": "bool",
          "name": "",
          "type": "bool"
        }
      ],
      "stateMutability": "view",
      "type": "function"
    },
    {
      "inputs": [],
      "name": "lockPeriod",
      "outputs": [
        {
          "internalType": "uint256",
          "name": "",
          "type": "uint256"
        }
      ],
      "stateMutability": "view",
      "type": "function"
    },
    {
      "inputs": [
        {
          "internalType": "bytes32",
          "name": "role",
          "type": "bytes32"
        },
        {
          "internalType": "address",
          "name": "account",
          "type": "address"
        }
      ],
      "name": "renounceRole",
      "outputs": [],
      "stateMutability": "nonpayable",
      "type": "function"
    },
    {
      "inputs": [
        {
          "internalType": "bytes32",
          "name": "role",
          "type": "bytes32"
        },
        {
          "internalType": "address",
          "name": "account",
          "type": "address"
        }
      ],
      "name": "revokeRole",
      "outputs": [],
      "stateMutability": "nonpayable",
      "type": "function"
    },
    {
      "inputs": [
        {
          "internalType": "uint256",
          "name": "index_",
          "type": "uint256"
        }
      ],
      "name": "sectorAtIndex",
      "outputs": [
        {
          "internalType": "address",
          "name": "",
          "type": "address"
        }
      ],
      "stateMutability": "view",
      "type": "function"
    },
    {
      "inputs": [],
      "name": "sectorReward",
      "outputs": [
        {
          "internalType": "uint256",
          "name": "",
          "type": "uint256"
        }
      ],
      "stateMutability": "view",
      "type": "function"
    },
    {
      "inputs": [
        {
          "internalType": "bytes28",
          "name": "afid_",
          "type": "bytes28"
        }
      ],
      "name": "sectorWithAfid",
      "outputs": [
        {
          "internalType": "address",
          "name": "",
          "type": "address"
        }
      ],
      "stateMutability": "view",
      "type": "function"
    },
    {
      "inputs": [],
      "name": "seedReward",
      "outputs": [
        {
          "internalType": "uint256",
          "name": "",
          "type": "uint256"
        }
      ],
      "stateMutability": "view",
      "type": "function"
    },
    {
      "inputs": [
        {
          "internalType": "bytes28",
          "name": "seed_",
          "type": "bytes28"
        }
      ],
      "name": "seedUsed",
      "outputs": [
        {
          "internalType": "bool",
          "name": "",
          "type": "bool"
        }
      ],
      "stateMutability": "view",
      "type": "function"
    },
    {
      "inputs": [
        {
          "internalType": "uint256",
          "name": "lockPeriod_",
          "type": "uint256"
        }
      ],
      "name": "setLockPeriod",
      "outputs": [],
      "stateMutability": "nonpayable",
      "type": "function"
    },
    {
      "inputs": [
        {
          "internalType": "uint256",
          "name": "reward_",
          "type": "uint256"
        }
      ],
      "name": "setSectorReward",
      "outputs": [],
      "stateMutability": "nonpayable",
      "type": "function"
    },
    {
      "inputs": [
        {
          "internalType": "uint256",
          "name": "reward_",
          "type": "uint256"
        }
      ],
      "name": "setSeedReward",
      "outputs": [],
      "stateMutability": "nonpayable",
      "type": "function"
    },
    {
      "inputs": [
        {
          "internalType": "uint256",
          "name": "timeout_",
          "type": "uint256"
        }
      ],
      "name": "setSubmitProofTimeout",
      "outputs": [],
      "stateMutability": "nonpayable",
      "type": "function"
    },
    {
      "inputs": [
        {
          "internalType": "uint256",
          "name": "timeout_",
          "type": "uint256"
        }
      ],
      "name": "setVerifyProofTimeout",
      "outputs": [],
      "stateMutability": "nonpayable",
      "type": "function"
    },
    {
      "inputs": [
        {
          "internalType": "uint256",
          "name": "reward_",
          "type": "uint256"
        }
      ],
      "name": "setVerifyReward",
      "outputs": [],
      "stateMutability": "nonpayable",
      "type": "function"
    },
    {
      "inputs": [
        {
          "internalType": "uint256",
          "name": "threshold_",
          "type": "uint256"
        }
      ],
      "name": "setVerifyThreshold",
      "outputs": [],
      "stateMutability": "nonpayable",
      "type": "function"
    },
    {
      "inputs": [],
      "name": "submitProofTimeout",
      "outputs": [
        {
          "internalType": "uint256",
          "name": "",
          "type": "uint256"
        }
      ],
      "stateMutability": "view",
      "type": "function"
    },
    {
      "inputs": [
        {
          "internalType": "address payable",
          "name": "owner_",
          "type": "address"
        },
        {
          "internalType": "bytes28",
          "name": "afid_",
          "type": "bytes28"
        }
      ],
      "name": "submitSector",
      "outputs": [],
      "stateMutability": "payable",
      "type": "function"
    },
    {
      "inputs": [
        {
          "internalType": "bytes28",
          "name": "seed_",
          "type": "bytes28"
        }
      ],
      "name": "submitSeed",
      "outputs": [],
      "stateMutability": "nonpayable",
      "type": "function"
    },
    {
      "inputs": [
        {
          "internalType": "bytes4",
          "name": "interfaceId",
          "type": "bytes4"
        }
      ],
      "name": "supportsInterface",
      "outputs": [
        {
          "internalType": "bool",
          "name": "",
          "type": "bool"
        }
      ],
      "stateMutability": "view",
      "type": "function"
    },
    {
      "inputs": [],
      "name": "verifyProofTimeout",
      "outputs": [
        {
          "internalType": "uint256",
          "name": "",
          "type": "uint256"
        }
      ],
      "stateMutability": "view",
      "type": "function"
    },
    {
      "inputs": [],
      "name": "verifyReward",
      "outputs": [
        {
          "internalType": "uint256",
          "name": "",
          "type": "uint256"
        }
      ],
      "stateMutability": "view",
      "type": "function"
    },
    {
      "inputs": [],
      "name": "verifyThreshold",
      "outputs": [
        {
          "internalType": "uint256",
          "name": "",
          "type": "uint256"
        }
      ],
      "stateMutability": "view",
      "type": "function"
    },
    {
      "inputs": [],
      "name": "withdraw",
      "outputs": [],
      "stateMutability": "nonpayable",
      "type": "function"
    },
    {
      "stateMutability": "payable",
      "type": "receive"
    }
  ],
  "bytecode": "0x60806040526040516200365338038062003653833981016040819052620000269162000107565b6200003360003362000057565b6005969096556004949094556006929092556007556001556002556003556200015b565b62000063828262000067565b5050565b6000828152602081815260408083206001600160a01b038516845290915290205460ff1662000063576000828152602081815260408083206001600160a01b03851684529091529020805460ff19166001179055620000c33390565b6001600160a01b0316816001600160a01b0316837f2f8788117e7eff1d82e926ec794901d17c78024a50270940304540a733656f0d60405160405180910390a45050565b600080600080600080600060e0888a03121562000122578283fd5b5050855160208701516040880151606089015160808a015160a08b015160c0909b0151949c939b50919990985090965094509092509050565b6134e8806200016b6000396000f3fe608060405260043610620002355760003560e01c806360eb95491162000139578063b25d8cee11620000c1578063dc606461116200008b578063e4933458116200006d578063e49334581462000708578063f69bce241462000720578063fc096c4f1462000738576200023d565b8063dc60646114620006be578063e23823c914620006e3576200023d565b8063b25d8cee1462000627578063c3c56e66146200063e578063d41d0e5c1462000663578063d547741f1462000699576200023d565b80638f84940a11620001035780638f84940a146200059857806391d1485414620005b0578063a217fddf14620005f8578063af22c359146200060f576200023d565b806360eb954914620004fb57806371c7c90c1462000536578063779972da146200055b5780638bbcf85f1462000580576200023d565b80633a8c266a11620001bd578063551edf641162000187578063551edf6414620004705780635c488da614620004885780635ddb379714620004be5780635e9dc50514620004d6576200023d565b80633a8c266a14620003c15780633ccfd60b146200041b5780633fd8b02f146200043357806352baa7c7146200044b576200023d565b8063225bb28611620001ff578063225bb286146200031e578063248a9ca314620003435780632f2ff15d146200037757806336568abe146200039c576200023d565b806301ffc9a714620002425780630217516a146200027c578063066b57ef14620002c15780630c8070f514620002f7576200023d565b366200023d57005b600080fd5b3480156200024f57600080fd5b50620002676200026136600462001716565b6200075d565b60405190151581526020015b60405180910390f35b3480156200028957600080fd5b50620002b27ffc07948174d5b432cfe29332fd123b17c444c9f18f139c322a618ec51a67a47581565b60405190815260200162000273565b348015620002ce57600080fd5b50620002b27f27878d6fd2352e8c530d873016f67bb748d79859c781b7c2453cc2caffa896ff81565b3480156200030457600080fd5b506200031c62000316366004620016cb565b620007f9565b005b3480156200032b57600080fd5b506200031c6200033d366004620016cb565b620008a8565b3480156200035057600080fd5b50620002b262000362366004620016cb565b60009081526020819052604090206001015490565b3480156200038457600080fd5b506200031c62000396366004620016e4565b62000953565b348015620003a957600080fd5b506200031c620003bb366004620016e4565b620009f6565b348015620003ce57600080fd5b5062000402620003e0366004620016ae565b63ffffffff19166000908152600860205260409020546001600160a01b031690565b6040516001600160a01b03909116815260200162000273565b3480156200042857600080fd5b506200031c62000a82565b3480156200044057600080fd5b50620002b260075481565b3480156200045857600080fd5b506200031c6200046a366004620016cb565b62000b58565b3480156200047d57600080fd5b50620002b260045481565b3480156200049557600080fd5b50620002b27fc92661711815e9b609b0f92f233af70537e889630fb3ca91ccc85ac8f98c784f81565b348015620004cb57600080fd5b50620002b260055481565b348015620004e357600080fd5b506200031c620004f5366004620016cb565b62000c03565b3480156200050857600080fd5b50620002676200051a366004620016ae565b63ffffffff19166000908152600a602052604090205460ff1690565b3480156200054357600080fd5b506200031c62000555366004620016ae565b62000cae565b3480156200056857600080fd5b506200031c6200057a366004620016cb565b62000fa1565b3480156200058d57600080fd5b50620002b26200104c565b348015620005a557600080fd5b50620002b260025481565b348015620005bd57600080fd5b5062000267620005cf366004620016e4565b6000918252602082815260408084206001600160a01b0393909316845291905290205460ff1690565b3480156200060557600080fd5b50620002b2600081565b3480156200061c57600080fd5b50620002b260035481565b6200031c6200063836600462001675565b62001065565b3480156200064b57600080fd5b50620002676200065d3660046200164f565b62001296565b3480156200067057600080fd5b50620002b27fd262a1e181ec035692bcc8c920b971bccc173d5263f104f91c1561b5033679dd81565b348015620006a657600080fd5b506200031c620006b8366004620016e4565b620012d7565b348015620006cb57600080fd5b506200031c620006dd366004620016cb565b62001368565b348015620006f057600080fd5b506200040262000702366004620016cb565b62001413565b3480156200071557600080fd5b50620002b260015481565b3480156200072d57600080fd5b50620002b260065481565b3480156200074557600080fd5b506200031c62000757366004620016cb565b62001452565b60007fffffffff0000000000000000000000000000000000000000000000000000000082167f7965db0b000000000000000000000000000000000000000000000000000000001480620007f157507f01ffc9a7000000000000000000000000000000000000000000000000000000007fffffffff000000000000000000000000000000000000000000000000000000008316145b90505b919050565b3360009081527fae0e3e90079b140685ffe82811e4f12bdad5cad554501b8278d0f5a224706b6d602052604090205460ff16620008a35760405162461bcd60e51b815260206004820152603d60248201527f547572626f46696c3a2063616c6c657220646f6573206e6f742068617665207060448201527f726976696c65676520746f206d61696e7461696e20547572626f46696c00000060648201526084015b60405180910390fd5b600555565b3360009081527fae0e3e90079b140685ffe82811e4f12bdad5cad554501b8278d0f5a224706b6d602052604090205460ff166200094e5760405162461bcd60e51b815260206004820152603d60248201527f547572626f46696c3a2063616c6c657220646f6573206e6f742068617665207060448201527f726976696c65676520746f206d61696e7461696e20547572626f46696c00000060648201526084016200089a565b600655565b60008281526020819052604090206001015462000972905b33620005cf565b620009e65760405162461bcd60e51b815260206004820152602f60248201527f416363657373436f6e74726f6c3a2073656e646572206d75737420626520616e60448201527f2061646d696e20746f206772616e74000000000000000000000000000000000060648201526084016200089a565b620009f28282620014fd565b5050565b6001600160a01b038116331462000a765760405162461bcd60e51b815260206004820152602f60248201527f416363657373436f6e74726f6c3a2063616e206f6e6c792072656e6f756e636560448201527f20726f6c657320666f722073656c66000000000000000000000000000000000060648201526084016200089a565b620009f282826200159d565b3360009081527fae0e3e90079b140685ffe82811e4f12bdad5cad554501b8278d0f5a224706b6d602052604090205460ff1662000b285760405162461bcd60e51b815260206004820152603d60248201527f547572626f46696c3a2063616c6c657220646f6573206e6f742068617665207060448201527f726976696c65676520746f206d61696e7461696e20547572626f46696c00000060648201526084016200089a565b60405133904780156108fc02916000818181858888f1935050505015801562000b55573d6000803e3d6000fd5b50565b3360009081527fae0e3e90079b140685ffe82811e4f12bdad5cad554501b8278d0f5a224706b6d602052604090205460ff1662000bfe5760405162461bcd60e51b815260206004820152603d60248201527f547572626f46696c3a2063616c6c657220646f6573206e6f742068617665207060448201527f726976696c65676520746f206d61696e7461696e20547572626f46696c00000060648201526084016200089a565b600455565b3360009081527fae0e3e90079b140685ffe82811e4f12bdad5cad554501b8278d0f5a224706b6d602052604090205460ff1662000ca95760405162461bcd60e51b815260206004820152603d60248201527f547572626f46696c3a2063616c6c657220646f6573206e6f742068617665207060448201527f726976696c65676520746f206d61696e7461696e20547572626f46696c00000060648201526084016200089a565b600155565b3360009081527fceb024648002b7aa8bf572054d62dd3bc301b27fee40c0676cfe5d7af457c179602052604090205460ff1662000d545760405162461bcd60e51b815260206004820152603760248201527f547572626f46696c3a2063616c6c657220646f6573206e6f742068617665207060448201527f726976696c65676520746f207375626d6974207365656400000000000000000060648201526084016200089a565b63ffffffff1981166000908152600a602052604090205460ff161562000dbd5760405162461bcd60e51b815260206004820152601b60248201527f547572626f46696c3a207365656420616c72656164792075736564000000000060448201526064016200089a565b60095460009062000dd342602085901c62001773565b62000ddf919062001795565b905060006009828154811062000e0557634e487b7160e01b600052603260045260246000fd5b60009182526020822001546003546006546001600160a01b03909216935062000e2e9162001773565b60045460055462000e40919062001758565b62000e4c919062001758565b905060008183863360015460025460035460055460045460065460405162000e74906200161d565b6001600160a01b03998a16815263ffffffff1990981660208901529790951660408701526060860193909352608085019190915260a084015260c083015260e0820152610100810191909152610120016040518091039082f090508015801562000ee2573d6000803e3d6000fd5b506040517f971f8bb10000000000000000000000000000000000000000000000000000000081526001600160a01b0380831660048301529192509084169063971f8bb190602401600060405180830381600087803b15801562000f4457600080fd5b505af115801562000f59573d6000803e3d6000fd5b50506040516001600160a01b03841681527f115fca28f0a849f0f7302441d83dfcb7cc3a8b34676c211feefde9abf79104b49250602001905060405180910390a15050505050565b3360009081527fae0e3e90079b140685ffe82811e4f12bdad5cad554501b8278d0f5a224706b6d602052604090205460ff16620010475760405162461bcd60e51b815260206004820152603d60248201527f547572626f46696c3a2063616c6c657220646f6573206e6f742068617665207060448201527f726976696c65676520746f206d61696e7461696e20547572626f46696c00000060648201526084016200089a565b600755565b600060075460055462001060919062001773565b905090565b3360009081527fa89c0f8ba48788a63faf58e7c9490f238a84082efa793d1a35ec2c48e19154f4602052604090205460ff166200110b5760405162461bcd60e51b815260206004820152603960248201527f547572626f46696c3a2063616c6c657220646f6573206e6f742068617665207060448201527f726976696c65676520746f207375626d697420736563746f720000000000000060648201526084016200089a565b6007546005546200111d919062001773565b3410156200116e5760405162461bcd60e51b815260206004820152601c60248201527f547572626f46696c3a206e6f7420656e6f756768206465706f7369740000000060448201526064016200089a565b600034838360075460405162001184906200162b565b6001600160a01b03909316835263ffffffff19909116602083015260408201526060016040518091039082f0905080158015620011c5573d6000803e3d6000fd5b5063ffffffff198316600081815260086020908152604080832080547fffffffffffffffffffffffff00000000000000000000000000000000000000009081166001600160a01b038881169182179093556009805460018101825596527f6e1540171b6c0c960b71a7020d9f60077f6af931a8bbf590da0223dacf75c7af9095018054909116851790558151908916815291820193909352918201529091507f34da889154586424bd6c1f8c6719be8b74e3cc57fb04de7f502945dc6c1299439060600160405180910390a1505050565b6001600160a01b03811660009081527f70912f16addbccb216ad6bdad396e8fdf5835d1a3528876519bbd4a04c7c193b602052604081205460ff16620007f1565b600082815260208190526040902060010154620012f4906200096b565b62000a765760405162461bcd60e51b815260206004820152603060248201527f416363657373436f6e74726f6c3a2073656e646572206d75737420626520616e60448201527f2061646d696e20746f207265766f6b650000000000000000000000000000000060648201526084016200089a565b3360009081527fae0e3e90079b140685ffe82811e4f12bdad5cad554501b8278d0f5a224706b6d602052604090205460ff166200140e5760405162461bcd60e51b815260206004820152603d60248201527f547572626f46696c3a2063616c6c657220646f6573206e6f742068617665207060448201527f726976696c65676520746f206d61696e7461696e20547572626f46696c00000060648201526084016200089a565b600355565b6000600982815481106200143757634e487b7160e01b600052603260045260246000fd5b6000918252602090912001546001600160a01b031692915050565b3360009081527fae0e3e90079b140685ffe82811e4f12bdad5cad554501b8278d0f5a224706b6d602052604090205460ff16620014f85760405162461bcd60e51b815260206004820152603d60248201527f547572626f46696c3a2063616c6c657220646f6573206e6f742068617665207060448201527f726976696c65676520746f206d61696e7461696e20547572626f46696c00000060648201526084016200089a565b600255565b6000828152602081815260408083206001600160a01b038516845290915290205460ff16620009f2576000828152602081815260408083206001600160a01b03851684529091529020805460ff19166001179055620015593390565b6001600160a01b0316816001600160a01b0316837f2f8788117e7eff1d82e926ec794901d17c78024a50270940304540a733656f0d60405160405180910390a45050565b6000828152602081815260408083206001600160a01b038516845290915290205460ff1615620009f2576000828152602081815260408083206001600160a01b0385168085529252808320805460ff1916905551339285917ff6391f5c32d9c69d2a47ea670b442974b53935d1edc7fd64eb21e047a839171b9190a45050565b61152380620017e383390190565b6107ad8062002d0683390190565b803563ffffffff1981168114620007f457600080fd5b60006020828403121562001661578081fd5b81356200166e81620017cc565b9392505050565b6000806040838503121562001688578081fd5b82356200169581620017cc565b9150620016a56020840162001639565b90509250929050565b600060208284031215620016c0578081fd5b6200166e8262001639565b600060208284031215620016dd578081fd5b5035919050565b60008060408385031215620016f7578182fd5b8235915060208301356200170b81620017cc565b809150509250929050565b60006020828403121562001728578081fd5b81357fffffffff00000000000000000000000000000000000000000000000000000000811681146200166e578182fd5b600082198211156200176e576200176e620017b6565b500190565b6000816000190483118215151615620017905762001790620017b6565b500290565b600082620017b157634e487b7160e01b81526012600452602481fd5b500690565b634e487b7160e01b600052601160045260246000fd5b6001600160a01b038116811462000b5557600080fdfe60806040526040516200152338038062001523833981016040819052620000269162000160565b62000032848262000209565b6200003e8385620001ee565b6200004a9190620001ee565b341015620000b15760405162461bcd60e51b815260206004820152602a60248201527f566572696669636174696f6e3a206e6f7420656e6f7567682066756e647320666044820152696f72207265776172647360b01b606482015260840160405180910390fd5b60008054336001600160a01b0319918216179091556001805482166001600160a01b038c811691909117909155600280546001600160e01b03191660208c901c179055600380549092169089161790556004839055600582905560068190556200011c8643620001ee565b600a8190556200012e908690620001ee565b600b5550505060075550620002419350505050565b80516001600160a01b03811681146200015b57600080fd5b919050565b60008060008060008060008060006101208a8c0312156200017f578485fd5b6200018a8a62000143565b985060208a015163ffffffff1981168114620001a4578586fd5b9750620001b460408b0162000143565b965060608a0151955060808a0151945060a08a0151935060c08a0151925060e08a015191506101008a015190509295985092959850929598565b600082198211156200020457620002046200022b565b500190565b60008160001904831182151516156200022657620002266200022b565b500290565b634e487b7160e01b600052601160045260246000fd5b6112d280620002516000396000f3fe608060405234801561001057600080fd5b50600436106101825760003560e01c8063a0e45278116100d8578063b7aec7ff1161008c578063f69bce2411610066578063f69bce24146102e2578063faf924cf146102eb578063fda5ee891461030057610182565b8063b7aec7ff146102a4578063c27c2514146102ac578063d245fbe1146102cf57610182565b8063a9666725116100bd578063a966672514610286578063a9cc47181461028e578063af22c3591461029b57610182565b8063a0e4527814610271578063a7a1ed721461027957610182565b8063346b7ba21161013a5780635ddb3797116101145780635ddb37971461022d5780637d94792a1461023657806396ae8f7f1461025957610182565b8063346b7ba214610214578063551edf641461021c5780635b9806281461022557610182565b8063200d2ed21161016b578063200d2ed2146101cd5780632c2e8faf146101ec5780632e53c5b01461020157610182565b806316f81cd814610187578063177536ea146101a2575b600080fd5b61018f610313565b6040519081526020015b60405180910390f35b6001546101b5906001600160a01b031681565b6040516001600160a01b039091168152602001610199565b6008546101da9060ff1681565b60405160ff9091168152602001610199565b6101ff6101fa3660046110c8565b610386565b005b6000546101b5906001600160a01b031681565b6101da600081565b61018f60055481565b6101ff610633565b61018f60045481565b6002546102439060201b81565b60405163ffffffff199091168152602001610199565b61026161071c565b6040519015158152602001610199565b61026161072d565b600754600d541015610261565b6101da600181565b600754600e541015610261565b61018f60075481565b61018f610733565b6102616102ba36600461102c565b600c6020526000908152604090205460ff1681565b6101ff6102dd36600461106b565b6107a1565b61018f60065481565b6102f3610c0e565b6040516101999190611204565b6003546101b5906001600160a01b031681565b600854600090819060ff161561037c5760405162461bcd60e51b8152602060048201526024808201527f566572696669636174696f6e3a206e6f742061742072657175697265642073746044820152636174757360e01b60648201526084015b60405180910390fd5b600a5491505b5090565b60085460009060ff16156103e85760405162461bcd60e51b8152602060048201526024808201527f566572696669636174696f6e3a206e6f742061742072657175697265642073746044820152636174757360e01b6064820152608401610373565b600154604080517f8da5cb5b000000000000000000000000000000000000000000000000000000008152905133926001600160a01b031691638da5cb5b916004808301926020929190829003018186803b15801561044557600080fd5b505afa158015610459573d6000803e3d6000fd5b505050506040513d601f19601f8201168201806040525081019061047d919061104f565b6001600160a01b0316146104f95760405162461bcd60e51b815260206004820152602860248201527f566572696669636174696f6e3a2063616c6c6572206973206e6f74207365637460448201527f6f72206f776e65720000000000000000000000000000000000000000000000006064820152608401610373565b600a544311156105575760405162461bcd60e51b815260206004820152602360248201527f566572696669636174696f6e3a207375626d69742070726f6f6620746f6f206c60448201526261746560e81b6064820152608401610373565b61056360098484610f9c565b506008805460ff1916600190811790915554604080516307fa4f9360e11b815290517fa79c7494911eca7aec126f69f576a6e301f083512c5beb7d028f7acc5cac4506926001600160a01b031691630ff49f26916004808301926020929190829003018186803b1580156105d657600080fd5b505afa1580156105ea573d6000803e3d6000fd5b505050506040513d601f19601f8201168201806040525081019061060e91906110a3565b600254604051610626929160201b9087908790611180565b60405180910390a1505050565b600754600e541080156106495750600754600d54105b8015610666575061065861071c565b80610666575061066661072d565b6106d85760405162461bcd60e51b815260206004820152602a60248201527f566572696669636174696f6e3a206e6f7420616c6c6f77656420746f20636f6c60448201527f6c6563742066756e6473000000000000000000000000000000000000000000006064820152608401610373565b471561071a57600080546040516001600160a01b03909116914780156108fc02929091818181858888f19350505050158015610718573d6000803e3d6000fd5b505b565b6000610726610313565b4311905090565b60006107265b60085460009060019060ff1681146107995760405162461bcd60e51b8152602060048201526024808201527f566572696669636174696f6e3a206e6f742061742072657175697265642073746044820152636174757360e01b6064820152608401610373565b5050600b5490565b60085460019060ff1681146108045760405162461bcd60e51b8152602060048201526024808201527f566572696669636174696f6e3a206e6f742061742072657175697265642073746044820152636174757360e01b6064820152608401610373565b6000546040517fc3c56e660000000000000000000000000000000000000000000000000000000081523360048201526001600160a01b039091169063c3c56e669060240160206040518083038186803b15801561086057600080fd5b505afa158015610874573d6000803e3d6000fd5b505050506040513d601f19601f820116820180604052508101906108989190611087565b61090a5760405162461bcd60e51b815260206004820152603560248201527f566572696669636174696f6e3a20646f6573206e6f742068617665207072697660448201527f696c65676520746f207665726966792070726f6f6600000000000000000000006064820152608401610373565b600b544311156109685760405162461bcd60e51b815260206004820152602360248201527f566572696669636174696f6e3a207665726966792070726f6f6620746f6f206c60448201526261746560e81b6064820152608401610373565b336000908152600c602052604090205460ff16156109ee5760405162461bcd60e51b815260206004820152602960248201527f566572696669636174696f6e3a2063616c6c65722068617320616c726561647960448201527f20766572696669656400000000000000000000000000000000000000000000006064820152608401610373565b8115610a4857600d80546001810182556000919091527fd7b6990105719101dabeb77144f2a3385c8033acd3af97e9423a695e81ad1eb501805473ffffffffffffffffffffffffffffffffffffffff191633179055610a98565b600e80546001810182556000919091527fbb7b4a454dc3493923482f07822329ed19e8244eff582cc204f8554c3620c3fd01805473ffffffffffffffffffffffffffffffffffffffff1916331790555b336000908152600c6020908152604091829020805460ff191660019081179091555482516307fa4f9360e11b815292517f9a5292fbad8e26c723de97e7c518937c80e586290c02269d4a2c02943ce9c1ef936001600160a01b039290921692630ff49f269260048082019391829003018186803b158015610b1857600080fd5b505afa158015610b2c573d6000803e3d6000fd5b505050506040513d601f19601f82011682018060405250810190610b5091906110a3565b60025460201b610b5e610c0e565b85604051610b6f94939291906111c7565b60405180910390a1600754600d5410610bc357604051600181527f22ef6b57ff0520c18bf784aafde82545aaf4682cfe59344462f5b1cbdf6704059060200160405180910390a1610bbe610d05565b610c0a565b600754600e5410610c0a57604051600081527f22ef6b57ff0520c18bf784aafde82545aaf4682cfe59344462f5b1cbdf6704059060200160405180910390a1610c0a610e79565b5050565b60085460609060019060ff168114610c745760405162461bcd60e51b8152602060048201526024808201527f566572696669636174696f6e3a206e6f742061742072657175697265642073746044820152636174757360e01b6064820152608401610373565b60098054610c8190611217565b80601f0160208091040260200160405190810160405280929190818152602001828054610cad90611217565b8015610cfa5780601f10610ccf57610100808354040283529160200191610cfa565b820191906000526020600020905b815481529060010190602001808311610cdd57829003601f168201915b505050505091505090565b6001805460048054600254604051630e9af4c960e01b81526001600160a01b0390941694630e9af4c9949293610d569360209390931b920163ffffffff199290921682521515602082015260400190565b6000604051808303818588803b158015610d6f57600080fd5b505af1158015610d83573d6000803e3d6000fd5b50506003546005546040516001600160a01b03909216945080156108fc02935091506000818181858888f19350505050158015610dc4573d6000803e3d6000fd5b5060005b600d54811015610e3857600d8181548110610df357634e487b7160e01b600052603260045260246000fd5b60009182526020822001546006546040516001600160a01b039092169281156108fc029290818181858888f19350505050508080610e3090611252565b915050610dc8565b50471561071a57600080546040516001600160a01b03909116914780156108fc02929091818181858888f19350505050158015610718573d6000803e3d6000fd5b600154600254604051630e9af4c960e01b815260209190911b63ffffffff19166004820152600060248201526001600160a01b0390911690630e9af4c990604401600060405180830381600087803b158015610ed457600080fd5b505af1158015610ee8573d6000803e3d6000fd5b50506003546005546040516001600160a01b03909216935080156108fc029250906000818181858888f19350505050158015610f28573d6000803e3d6000fd5b5060005b600e54811015610e3857600e8181548110610f5757634e487b7160e01b600052603260045260246000fd5b60009182526020822001546006546040516001600160a01b039092169281156108fc029290818181858888f19350505050508080610f9490611252565b915050610f2c565b828054610fa890611217565b90600052602060002090601f016020900481019282610fca5760008555611010565b82601f10610fe35782800160ff19823516178555611010565b82800160010185558215611010579182015b82811115611010578235825591602001919060010190610ff5565b506103829291505b808211156103825760008155600101611018565b60006020828403121561103d578081fd5b813561104881611279565b9392505050565b600060208284031215611060578081fd5b815161104881611279565b60006020828403121561107c578081fd5b81356110488161128e565b600060208284031215611098578081fd5b81516110488161128e565b6000602082840312156110b4578081fd5b815163ffffffff1981168114611048578182fd5b600080602083850312156110da578081fd5b823567ffffffffffffffff808211156110f1578283fd5b818501915085601f830112611104578283fd5b813581811115611112578384fd5b866020828501011115611123578384fd5b60209290920196919550909350505050565b60008151808452815b8181101561115a5760208185018101518683018201520161113e565b8181111561116b5782602083870101525b50601f01601f19169290920160200192915050565b63ffffffff198581168252841660208201526060604082018190528101829052600082846080840137818301608090810191909152601f909201601f191601019392505050565b600063ffffffff198087168352808616602084015250608060408301526111f16080830185611135565b9050821515606083015295945050505050565b6000602082526110486020830184611135565b600181811c9082168061122b57607f821691505b6020821081141561124c57634e487b7160e01b600052602260045260246000fd5b50919050565b600060001982141561127257634e487b7160e01b81526011600452602481fd5b5060010190565b6001600160a01b038116811461071857600080fd5b801515811461071857600080fdfea26469706673582212205c2d8f1c444ef3d1a47bfde521ab67c9201fccecfa0c273376b8e7a921f5fd8c64736f6c6343000803003360806040526040516107ad3803806107ad8339810160408190526100229161007c565b60098054336001600160a01b031991821617909155600780549091166001600160a01b038516179055600880546001600160e01b031916602084901c179055600061006d82346100d2565b60055550600655506100f29050565b600080600060608486031215610090578283fd5b83516001600160a01b03811681146100a6578384fd5b602085015190935063ffffffff19811681146100c0578283fd5b80925050604084015190509250925092565b6000826100ed57634e487b7160e01b81526012600452602481fd5b500490565b6106ac806101016000396000f3fe6080604052600436106100705760003560e01c80634ffe2a8b1161004e5780634ffe2a8b146100f75780638da5cb5b14610117578063971f8bb114610137578063bdc63c841461015757610070565b80630e9af4c9146100755780630ff49f261461008a5780632e53c5b0146100bf575b600080fd5b610088610083366004610582565b61017a565b005b34801561009657600080fd5b506008546100a49060201b81565b60405163ffffffff1990911681526020015b60405180910390f35b3480156100cb57600080fd5b506009546100df906001600160a01b031681565b6040516001600160a01b0390911681526020016100b6565b34801561010357600080fd5b50600a546100df906001600160a01b031681565b34801561012357600080fd5b506007546100df906001600160a01b031681565b34801561014357600080fd5b50610088610152366004610554565b6102b4565b34801561016357600080fd5b5061016c61036e565b6040519081526020016100b6565b600a546001600160a01b031633146101ff5760405162461bcd60e51b815260206004820152603260248201527f536563746f723a2063616e206f6e6c792062652063616c6c656420627920636f60448201527f727265637420766572696669636174696f6e000000000000000000000000000060648201526084015b60405180910390fd5b600080821561021a5734915061021482610393565b5061025e565b6102226104e2565b6009546040519192506001600160a01b0316903480156108fc02916000818181858888f1935050505015801561025c573d6000803e3d6000fd5b505b6040805163ffffffff19861681528415156020820152908101839052606081018290527f44597cff11b810d3efcb2de85f7ffc5694909f1cb95ecb95bb06a422cd047ece9060800160405180910390a150505050565b6009546001600160a01b031633146103345760405162461bcd60e51b815260206004820152602660248201527f536563746f723a2063616e206f6e6c792062652063616c6c656420627920547560448201527f72626f46696c000000000000000000000000000000000000000000000000000060648201526084016101f6565b600a80547fffffffffffffffffffffffff0000000000000000000000000000000000000000166001600160a01b0392909216919091179055565b600654600554600091610380916105df565b60035461038d91906105c7565b90505b90565b600654600090156103d8576005546103ab90826105c7565b6006805491925060006103bd83610615565b9091555050600480549060006103d28361062c565b91905055505b600254600154839160009182916103ee916105c7565b815260200190815260200160002081905550816000600301600082825461041591906105c7565b909155505060045460025410156104475760016000600201600082825461043c91906105c7565b9091555061049b9050565b60015460009081526020819052604090205461046390826105c7565b905060016000600101600082825461047b91906105c7565b9091555050600380548291906000906104959084906105fe565b90915550505b80156104dd576007546040516001600160a01b039091169082156108fc029083906000818181858888f193505050501580156104db573d6000803e3d6000fd5b505b919050565b6006546005546000916104f4916105df565b6104fe90826105c7565b60035490915061050e90826105c7565b90508015610390576009546040516001600160a01b039091169082156108fc029083906000818181858888f19350505050158015610550573d6000803e3d6000fd5b5090565b600060208284031215610565578081fd5b81356001600160a01b038116811461057b578182fd5b9392505050565b60008060408385031215610594578081fd5b823563ffffffff19811681146105a8578182fd5b9150602083013580151581146105bc578182fd5b809150509250929050565b600082198211156105da576105da610647565b500190565b60008160001904831182151516156105f9576105f9610647565b500290565b60008282101561061057610610610647565b500390565b60008161062457610624610647565b506000190190565b600060001982141561064057610640610647565b5060010190565b7f4e487b7100000000000000000000000000000000000000000000000000000000600052601160045260246000fdfea2646970667358221220be6734ffa64780038588ae283d5d1b963fe456bdc746c51b47d49efa83c565a164736f6c63430008030033a2646970667358221220ffe25d9fbe59de8c24d020cce0e26b6e226eb32538f5d7de1ef97c0126c3a16064736f6c63430008030033",
  "linkReferences": {},
  "deployedLinkReferences": {}
}