{
  "_format": "hh-sol-artifact-1",
  "contractName": "TurboFil",
  "sourceName": "contracts/TurboFil.sol",
  "abi": [
    {
      "inputs": [],
      "stateMutability": "nonpayable",
      "type": "constructor"
    },
    {
      "anonymous": false,
      "inputs": [
        {
          "indexed": false,
          "internalType": "address",
          "name": "owner",
          "type": "address"
        },
        {
          "indexed": false,
          "internalType": "address",
          "name": "rnode",
          "type": "address"
        },
        {
          "indexed": false,
          "internalType": "string",
          "name": "afid",
          "type": "string"
        }
      ],
      "name": "RegisterRNode",
      "type": "event"
    },
    {
      "anonymous": false,
      "inputs": [
        {
          "indexed": true,
          "internalType": "bytes32",
          "name": "role",
          "type": "bytes32"
        },
        {
          "indexed": true,
          "internalType": "bytes32",
          "name": "previousAdminRole",
          "type": "bytes32"
        },
        {
          "indexed": true,
          "internalType": "bytes32",
          "name": "newAdminRole",
          "type": "bytes32"
        }
      ],
      "name": "RoleAdminChanged",
      "type": "event"
    },
    {
      "anonymous": false,
      "inputs": [
        {
          "indexed": true,
          "internalType": "bytes32",
          "name": "role",
          "type": "bytes32"
        },
        {
          "indexed": true,
          "internalType": "address",
          "name": "account",
          "type": "address"
        },
        {
          "indexed": true,
          "internalType": "address",
          "name": "sender",
          "type": "address"
        }
      ],
      "name": "RoleGranted",
      "type": "event"
    },
    {
      "anonymous": false,
      "inputs": [
        {
          "indexed": true,
          "internalType": "bytes32",
          "name": "role",
          "type": "bytes32"
        },
        {
          "indexed": true,
          "internalType": "address",
          "name": "account",
          "type": "address"
        },
        {
          "indexed": true,
          "internalType": "address",
          "name": "sender",
          "type": "address"
        }
      ],
      "name": "RoleRevoked",
      "type": "event"
    },
    {
      "anonymous": false,
      "inputs": [
        {
          "indexed": false,
          "internalType": "address",
          "name": "submitter",
          "type": "address"
        },
        {
          "indexed": false,
          "internalType": "address",
          "name": "sector",
          "type": "address"
        },
        {
          "indexed": false,
          "internalType": "string",
          "name": "afid",
          "type": "string"
        }
      ],
      "name": "SubmitSector",
      "type": "event"
    },
    {
      "anonymous": false,
      "inputs": [
        {
          "indexed": false,
          "internalType": "address",
          "name": "submitter",
          "type": "address"
        },
        {
          "indexed": false,
          "internalType": "address",
          "name": "seed",
          "type": "address"
        },
        {
          "indexed": false,
          "internalType": "string",
          "name": "afid",
          "type": "string"
        }
      ],
      "name": "SubmitSeed",
      "type": "event"
    },
    {
      "anonymous": false,
      "inputs": [
        {
          "indexed": false,
          "internalType": "address",
          "name": "sector",
          "type": "address"
        },
        {
          "indexed": false,
          "internalType": "address",
          "name": "seed",
          "type": "address"
        },
        {
          "indexed": false,
          "internalType": "bool",
          "name": "success",
          "type": "bool"
        }
      ],
      "name": "VerifySector",
      "type": "event"
    },
    {
      "inputs": [],
      "name": "DEFAULT_ADMIN_ROLE",
      "outputs": [
        {
          "internalType": "bytes32",
          "name": "",
          "type": "bytes32"
        }
      ],
      "stateMutability": "view",
      "type": "function"
    },
    {
      "inputs": [],
      "name": "REGISTER_ROLE",
      "outputs": [
        {
          "internalType": "bytes32",
          "name": "",
          "type": "bytes32"
        }
      ],
      "stateMutability": "view",
      "type": "function"
    },
    {
      "inputs": [],
      "name": "REWARD_ROLE",
      "outputs": [
        {
          "internalType": "bytes32",
          "name": "",
          "type": "bytes32"
        }
      ],
      "stateMutability": "view",
      "type": "function"
    },
    {
      "inputs": [],
      "name": "SEED_ROLE",
      "outputs": [
        {
          "internalType": "bytes32",
          "name": "",
          "type": "bytes32"
        }
      ],
      "stateMutability": "view",
      "type": "function"
    },
    {
      "inputs": [],
      "name": "SUBMIT_ROLE",
      "outputs": [
        {
          "internalType": "bytes32",
          "name": "",
          "type": "bytes32"
        }
      ],
      "stateMutability": "view",
      "type": "function"
    },
    {
      "inputs": [],
      "name": "VERIFY_ROLE",
      "outputs": [
        {
          "internalType": "bytes32",
          "name": "",
          "type": "bytes32"
        }
      ],
      "stateMutability": "view",
      "type": "function"
    },
    {
      "inputs": [],
      "name": "distributeTFC",
      "outputs": [],
      "stateMutability": "payable",
      "type": "function"
    },
    {
      "inputs": [
        {
          "internalType": "bytes32",
          "name": "role",
          "type": "bytes32"
        }
      ],
      "name": "getRoleAdmin",
      "outputs": [
        {
          "internalType": "bytes32",
          "name": "",
          "type": "bytes32"
        }
      ],
      "stateMutability": "view",
      "type": "function"
    },
    {
      "inputs": [
        {
          "internalType": "bytes32",
          "name": "role",
          "type": "bytes32"
        },
        {
          "internalType": "address",
          "name": "account",
          "type": "address"
        }
      ],
      "name": "grantRole",
      "outputs": [],
      "stateMutability": "nonpayable",
      "type": "function"
    },
    {
      "inputs": [
        {
          "internalType": "bytes32",
          "name": "role",
          "type": "bytes32"
        },
        {
          "internalType": "address",
          "name": "account",
          "type": "address"
        }
      ],
      "name": "hasRole",
      "outputs": [
        {
          "internalType": "bool",
          "name": "",
          "type": "bool"
        }
      ],
      "stateMutability": "view",
      "type": "function"
    },
    {
      "inputs": [
        {
          "internalType": "address",
          "name": "sectorSubmissionShare_",
          "type": "address"
        },
        {
          "internalType": "address",
          "name": "sectorVerificationShare_",
          "type": "address"
        },
        {
          "internalType": "address",
          "name": "seedSubmissionShare_",
          "type": "address"
        },
        {
          "internalType": "address",
          "name": "seedEvaluationShare_",
          "type": "address"
        }
      ],
      "name": "initialize",
      "outputs": [],
      "stateMutability": "nonpayable",
      "type": "function"
    },
    {
      "inputs": [
        {
          "internalType": "address",
          "name": "owner_",
          "type": "address"
        },
        {
          "internalType": "string",
          "name": "afid_",
          "type": "string"
        }
      ],
      "name": "registerRNode",
      "outputs": [
        {
          "internalType": "contract RNode",
          "name": "",
          "type": "address"
        }
      ],
      "stateMutability": "nonpayable",
      "type": "function"
    },
    {
      "inputs": [
        {
          "internalType": "bytes32",
          "name": "role",
          "type": "bytes32"
        },
        {
          "internalType": "address",
          "name": "account",
          "type": "address"
        }
      ],
      "name": "renounceRole",
      "outputs": [],
      "stateMutability": "nonpayable",
      "type": "function"
    },
    {
      "inputs": [
        {
          "internalType": "bytes32",
          "name": "role",
          "type": "bytes32"
        },
        {
          "internalType": "address",
          "name": "account",
          "type": "address"
        }
      ],
      "name": "revokeRole",
      "outputs": [],
      "stateMutability": "nonpayable",
      "type": "function"
    },
    {
      "inputs": [
        {
          "internalType": "contract IRNode",
          "name": "rnode_",
          "type": "address"
        },
        {
          "internalType": "address",
          "name": "submitter_",
          "type": "address"
        },
        {
          "internalType": "string",
          "name": "afid_",
          "type": "string"
        },
        {
          "internalType": "string",
          "name": "merkleRoot_",
          "type": "string"
        }
      ],
      "name": "submitSector",
      "outputs": [
        {
          "internalType": "contract Sector",
          "name": "",
          "type": "address"
        }
      ],
      "stateMutability": "payable",
      "type": "function"
    },
    {
      "inputs": [
        {
          "internalType": "address",
          "name": "submitter_",
          "type": "address"
        },
        {
          "internalType": "string",
          "name": "afid_",
          "type": "string"
        }
      ],
      "name": "submitSeed",
      "outputs": [
        {
          "internalType": "contract Seed",
          "name": "",
          "type": "address"
        }
      ],
      "stateMutability": "nonpayable",
      "type": "function"
    },
    {
      "inputs": [
        {
          "internalType": "bytes4",
          "name": "interfaceId",
          "type": "bytes4"
        }
      ],
      "name": "supportsInterface",
      "outputs": [
        {
          "internalType": "bool",
          "name": "",
          "type": "bool"
        }
      ],
      "stateMutability": "view",
      "type": "function"
    },
    {
      "inputs": [
        {
          "internalType": "contract Sector",
          "name": "sector_",
          "type": "address"
        },
        {
          "internalType": "contract Seed",
          "name": "seed_",
          "type": "address"
        },
        {
          "internalType": "bool",
          "name": "success_",
          "type": "bool"
        }
      ],
      "name": "verifySector",
      "outputs": [],
      "stateMutability": "nonpayable",
      "type": "function"
    }
  ],
  "bytecode": "0x60806040523480156200001157600080fd5b506200001f60003362000025565b620000d5565b62000031828262000035565b5050565b6000828152602081815260408083206001600160a01b038516845290915290205460ff1662000031576000828152602081815260408083206001600160a01b03851684529091529020805460ff19166001179055620000913390565b6001600160a01b0316816001600160a01b0316837f2f8788117e7eff1d82e926ec794901d17c78024a50270940304540a733656f0d60405160405180910390a45050565b615cce80620000e56000396000f3fe608060405260043610620001465760003560e01c8063a217fddf11620000b5578063d547741f116200007f578063f05d081d1162000061578063f05d081d1462000413578063f8c8765e146200042a578063f95c42de146200044f5762000146565b8063d547741f14620003b8578063e8884f2b14620003dd5762000146565b8063a217fddf1462000310578063a9c0c6941462000327578063c0686987146200035d578063d41d0e5c14620003825762000146565b8063338158ea1162000115578063612d395811620000f7578063612d3958146200028857806374f53317146200029257806391d1485414620002c85762000146565b8063338158ea146200022557806336568abe14620002635762000146565b806301ffc9a7146200014b5780630217516a1462000185578063248a9ca314620001ca5780632f2ff15d14620001fe575b600080fd5b3480156200015857600080fd5b50620001706200016a36600462001c05565b62000474565b60405190151581526020015b60405180910390f35b3480156200019257600080fd5b50620001bb7ffc07948174d5b432cfe29332fd123b17c444c9f18f139c322a618ec51a67a47581565b6040519081526020016200017c565b348015620001d757600080fd5b50620001bb620001e936600462001bba565b60009081526020819052604090206001015490565b3480156200020b57600080fd5b50620002236200021d36600462001bd3565b6200050e565b005b3480156200023257600080fd5b506200024a6200024436600462001b61565b620005b5565b6040516001600160a01b0390911681526020016200017c565b3480156200027057600080fd5b50620002236200028236600462001bd3565b62000814565b62000223620008a0565b3480156200029f57600080fd5b50620001bb7fd1f21ec03a6eb050fba156f5316dad461735df521fb446dd42c5a4728e9c70fe81565b348015620002d557600080fd5b5062000170620002e736600462001bd3565b6000918252602082815260408084206001600160a01b0393909316845291905290205460ff1690565b3480156200031d57600080fd5b50620001bb600081565b3480156200033457600080fd5b50620001bb7f8a8601cc8e9efb544266baca5bffc5cea11aed5de937dc37810fd002b4010eac81565b3480156200036a57600080fd5b50620002236200037c36600462001ce4565b62000f7c565b3480156200038f57600080fd5b50620001bb7fd262a1e181ec035692bcc8c920b971bccc173d5263f104f91c1561b5033679dd81565b348015620003c557600080fd5b5062000223620003d736600462001bd3565b6200124e565b348015620003ea57600080fd5b50620001bb7fc002a6b5f9f56101ba6339b1b95d171fadf6e41e005b91c80d686aef7516e75981565b6200024a6200042436600462001c47565b620012df565b3480156200043757600080fd5b50620002236200044936600462001afd565b620016e0565b3480156200045c57600080fd5b506200024a6200046e36600462001b61565b620017ee565b60007fffffffff0000000000000000000000000000000000000000000000000000000082167f7965db0b0000000000000000000000000000000000000000000000000000000014806200050857507f01ffc9a7000000000000000000000000000000000000000000000000000000007fffffffff000000000000000000000000000000000000000000000000000000008316145b92915050565b6000828152602081905260409020600101546200052d905b33620002e7565b620005a55760405162461bcd60e51b815260206004820152602f60248201527f416363657373436f6e74726f6c3a2073656e646572206d75737420626520616e60448201527f2061646d696e20746f206772616e74000000000000000000000000000000000060648201526084015b60405180910390fd5b620005b1828262001943565b5050565b3360009081527fceb024648002b7aa8bf572054d62dd3bc301b27fee40c0676cfe5d7af457c179602052604081205460ff166200065b5760405162461bcd60e51b815260206004820152603760248201527f547572626f46696c3a2043616c6c657220646f6573206e6f742068617665207060448201527f726976696c65676520746f207375626d6974207365656400000000000000000060648201526084016200059c565b6003546004546040516000928792879287926001600160a01b03908116921690620006869062001a63565b6200069695949392919062001e49565b604051809103906000f080158015620006b3573d6000803e3d6000fd5b5060048054604051632f2ff15d60e01b81527f9f2df0fed2c77648de5860a4cc508cd0818c85b8b8a1ab4ceeef8d981c8956a69281018390526001600160a01b03808516602483015293945091921690632f2ff15d90604401600060405180830381600087803b1580156200072757600080fd5b505af11580156200073c573d6000803e3d6000fd5b5050600354604051632f2ff15d60e01b8152600481018590526001600160a01b0386811660248301529091169250632f2ff15d9150604401600060405180830381600087803b1580156200078f57600080fd5b505af1158015620007a4573d6000803e3d6000fd5b505050507f66f7718bf5fa0bd1f570894983444a70ab7b903b0cb9af56f12cef87b7337be586838787604051620007df949392919062001d7b565b60405180910390a1506001600160a01b0381166000908152600760205260409020805460ff1916600117905590509392505050565b6001600160a01b0381163314620008945760405162461bcd60e51b815260206004820152602f60248201527f416363657373436f6e74726f6c3a2063616e206f6e6c792072656e6f756e636560448201527f20726f6c657320666f722073656c66000000000000000000000000000000000060648201526084016200059c565b620005b18282620019e3565b3360009081527f505f51e4f94ece54da33825fefea41390672a3c3fe059a11feb857dd74fd947a602052604090205460ff16620009465760405162461bcd60e51b815260206004820152603a60248201527f547572626f46696c3a2043616c6c657220646f6573206e6f742068617665207060448201527f726976696c65676520746f20646973747269627574652054464300000000000060648201526084016200059c565b6001808080600062000959828062001e89565b90506000346200096a838862001ea4565b62000976919062001ec5565b90506000600160009054906101000a90046001600160a01b03166001600160a01b03166318160ddd6040518163ffffffff1660e01b815260040160206040518083038186803b158015620009c957600080fd5b505afa158015620009de573d6000803e3d6000fd5b505050506040513d601f19601f8201168201806040525081019062000a04919062001d38565b111562000aba576001546001600160a01b031663b95dac6e8262000a2c42626ebe0062001e89565b6040518363ffffffff1660e01b815260040162000a809181526040602082018190526018908201527f536563746f72205375626d697373696f6e205265776172640000000000000000606082015260800190565b6000604051808303818588803b15801562000a9a57600080fd5b505af115801562000aaf573d6000803e3d6000fd5b505050505062000aea565b604051339082156108fc029083906000818181858888f1935050505015801562000ae8573d6000803e3d6000fd5b505b60003462000af9848862001ea4565b62000b05919062001ec5565b90506000600260009054906101000a90046001600160a01b03166001600160a01b03166318160ddd6040518163ffffffff1660e01b815260040160206040518083038186803b15801562000b5857600080fd5b505afa15801562000b6d573d6000803e3d6000fd5b505050506040513d601f19601f8201168201806040525081019062000b93919062001d38565b111562000c49576002546001600160a01b031663b95dac6e8262000bbb42626ebe0062001e89565b6040518363ffffffff1660e01b815260040162000c0f918152604060208201819052601a908201527f536563746f7220566572696669636174696f6e20526577617264000000000000606082015260800190565b6000604051808303818588803b15801562000c2957600080fd5b505af115801562000c3e573d6000803e3d6000fd5b505050505062000c79565b604051339082156108fc029083906000818181858888f1935050505015801562000c77573d6000803e3d6000fd5b505b60003462000c88858862001ea4565b62000c94919062001ec5565b90506000600360009054906101000a90046001600160a01b03166001600160a01b03166318160ddd6040518163ffffffff1660e01b815260040160206040518083038186803b15801562000ce757600080fd5b505afa15801562000cfc573d6000803e3d6000fd5b505050506040513d601f19601f8201168201806040525081019062000d22919062001d38565b111562000dc65760035460408051635caed63760e11b81524260048201526024810191909152601660448201527f53656564205375626d697373696f6e205265776172640000000000000000000060648201526001600160a01b039091169063b95dac6e9083906084016000604051808303818588803b15801562000da657600080fd5b505af115801562000dbb573d6000803e3d6000fd5b505050505062000df6565b604051339082156108fc029083906000818181858888f1935050505015801562000df4573d6000803e3d6000fd5b505b60003462000e05868862001ea4565b62000e11919062001ec5565b90506000600460009054906101000a90046001600160a01b03166001600160a01b03166318160ddd6040518163ffffffff1660e01b815260040160206040518083038186803b15801562000e6457600080fd5b505afa15801562000e79573d6000803e3d6000fd5b505050506040513d601f19601f8201168201806040525081019062000e9f919062001d38565b111562000f41576004805460408051635caed63760e11b815242938101939093526024830152601660448301527f53656564204576616c756174696f6e205265776172640000000000000000000060648301526001600160a01b03169063b95dac6e9083906084016000604051808303818588803b15801562000f2157600080fd5b505af115801562000f36573d6000803e3d6000fd5b505050505062000f71565b604051339082156108fc029083906000818181858888f1935050505015801562000f6f573d6000803e3d6000fd5b505b505050505050505050565b3360009081527f70912f16addbccb216ad6bdad396e8fdf5835d1a3528876519bbd4a04c7c193b602052604090205460ff16620010225760405162461bcd60e51b815260206004820152603960248201527f547572626f46696c3a2043616c6c657220646f6573206e6f742068617665207060448201527f726976696c65676520746f2076657269667920736563746f720000000000000060648201526084016200059c565b6001600160a01b03831660009081526006602052604090205460ff166200108c5760405162461bcd60e51b815260206004820152601860248201527f547572626f46696c3a20556e6b6e6f776e20736563746f72000000000000000060448201526064016200059c565b6001600160a01b03821660009081526007602052604090205460ff16620010f65760405162461bcd60e51b815260206004820152601660248201527f547572626f46696c3a20556e6b6e6f776e20736565640000000000000000000060448201526064016200059c565b604051632f2ff15d60e01b81527f9d56108290ea0bc9c5c59c3ad357dca9d1b29ed7f3ae1443bef2fa2159bdf5e8600482018190526001600160a01b038581166024840152909190841690632f2ff15d90604401600060405180830381600087803b1580156200116557600080fd5b505af11580156200117a573d6000803e3d6000fd5b50506040517fd01618150000000000000000000000000000000000000000000000000000000081526001600160a01b03868116600483015285151560248301528716925063d01618159150604401600060405180830381600087803b158015620011e357600080fd5b505af1158015620011f8573d6000803e3d6000fd5b5050604080516001600160a01b038881168252871660208201528515158183015290517ff6b3a83876ab7db2548bc00c35ba9ca9651debe4d6b9bd3682660507b6a505ec9350908190036060019150a150505050565b6000828152602081905260409020600101546200126b9062000526565b620008945760405162461bcd60e51b815260206004820152603060248201527f416363657373436f6e74726f6c3a2073656e646572206d75737420626520616e60448201527f2061646d696e20746f207265766f6b650000000000000000000000000000000060648201526084016200059c565b3360009081527f234a185795afd70ea5146c1d74a505f0e3f8abecf9444fbf4475e8fe98aecd91602052604081205460ff16620013855760405162461bcd60e51b815260206004820152603960248201527f547572626f46696c3a2043616c6c657220646f6573206e6f742068617665207060448201527f726976696c65676520746f207375626d697420736563746f720000000000000060648201526084016200059c565b866001600160a01b0316638da5cb5b6040518163ffffffff1660e01b815260040160206040518083038186803b158015620013bf57600080fd5b505afa158015620013d4573d6000803e3d6000fd5b505050506040513d601f19601f82011682018060405250810190620013fa919062001ad7565b6001600160a01b0316866001600160a01b031614620014825760405162461bcd60e51b815260206004820152602b60248201527f547572626f46696c3a20536563746f72207375626d6974746572206973206e6f60448201527f7420746865206f776e657200000000000000000000000000000000000000000060648201526084016200059c565b346729a2241af62c000014620015015760405162461bcd60e51b815260206004820152603260248201527f547572626f46696c3a20536563746f72207375626d697373696f6e207265717560448201527f69726573203320544643206465706f736974000000000000000000000000000060648201526084016200059c565b600034878988888888600260009054906101000a90046001600160a01b03166040516200152e9062001a71565b62001540979695949392919062001db4565b6040518091039082f09050801580156200155e573d6000803e3d6000fd5b50600254604051632f2ff15d60e01b81527f9f2df0fed2c77648de5860a4cc508cd0818c85b8b8a1ab4ceeef8d981c8956a6600482018190526001600160a01b0380851660248401529394509290911690632f2ff15d90604401600060405180830381600087803b158015620015d357600080fd5b505af1158015620015e8573d6000803e3d6000fd5b5050604051632f2ff15d60e01b81527fd262a1e181ec035692bcc8c920b971bccc173d5263f104f91c1561b5033679dd6004820181905230602483015293506001600160a01b0385169250632f2ff15d9150604401600060405180830381600087803b1580156200165857600080fd5b505af11580156200166d573d6000803e3d6000fd5b5050506001600160a01b03831660009081526006602052604090819020805460ff19166001179055517f6d2742cb9cc41ff11378c7ee1ad867c0f078b61407523ef8fa6e5b239a9078419150620016cc908a9085908b908b9062001d7b565b60405180910390a150979650505050505050565b3360009081527fad3228b676f7d3cd4284a5443f17f1962b36e491b30a40b2405849e597ba5fb5602052604090205460ff16620017865760405162461bcd60e51b815260206004820152603660248201527f547572626f46696c3a2043616c6c657220646f6573206e6f742068617665207060448201527f726976696c65676520746f20696e697469616c697a650000000000000000000060648201526084016200059c565b600180546001600160a01b039586167fffffffffffffffffffffffff0000000000000000000000000000000000000000918216179091556002805494861694821694909417909355600380549285169284169290921790915560048054919093169116179055565b3360009081527fb1181766a9c81b4919a74ad11cd58fed0a6a86ac01290b8e5ab9de5093d4988c602052604081205460ff16620018945760405162461bcd60e51b815260206004820152603a60248201527f547572626f46696c3a2043616c6c657220646f6573206e6f742068617665207060448201527f726976696c65676520746f20726567697374657220524e6f646500000000000060648201526084016200059c565b600084848430604051620018a89062001a7f565b620018b7949392919062001e0f565b604051809103906000f080158015620018d4573d6000803e3d6000fd5b506001600160a01b03811660009081526005602052604090819020805460ff19166001179055519091507f3c20dcd125b79d9d9f37601a9b8d4f44a2b4e573ae651e86e46f0bb0ae2c2472906200193390879084908890889062001d7b565b60405180910390a1949350505050565b6000828152602081815260408083206001600160a01b038516845290915290205460ff16620005b1576000828152602081815260408083206001600160a01b03851684529091529020805460ff191660011790556200199f3390565b6001600160a01b0316816001600160a01b0316837f2f8788117e7eff1d82e926ec794901d17c78024a50270940304540a733656f0d60405160405180910390a45050565b6000828152602081815260408083206001600160a01b038516845290915290205460ff1615620005b1576000828152602081815260408083206001600160a01b0385168085529252808320805460ff1916905551339285917ff6391f5c32d9c69d2a47ea670b442974b53935d1edc7fd64eb21e047a839171b9190a45050565b61105c8062001f1783390190565b6122358062002f7383390190565b610af180620051a883390190565b60008083601f84011262001a9f578182fd5b50813567ffffffffffffffff81111562001ab7578182fd5b60208301915083602082850101111562001ad057600080fd5b9250929050565b60006020828403121562001ae9578081fd5b815162001af68162001efd565b9392505050565b6000806000806080858703121562001b13578283fd5b843562001b208162001efd565b9350602085013562001b328162001efd565b9250604085013562001b448162001efd565b9150606085013562001b568162001efd565b939692955090935050565b60008060006040848603121562001b76578283fd5b833562001b838162001efd565b9250602084013567ffffffffffffffff81111562001b9f578283fd5b62001bad8682870162001a8d565b9497909650939450505050565b60006020828403121562001bcc578081fd5b5035919050565b6000806040838503121562001be6578182fd5b82359150602083013562001bfa8162001efd565b809150509250929050565b60006020828403121562001c17578081fd5b81357fffffffff000000000000000000000000000000000000000000000000000000008116811462001af6578182fd5b6000806000806000806080878903121562001c60578182fd5b863562001c6d8162001efd565b9550602087013562001c7f8162001efd565b9450604087013567ffffffffffffffff8082111562001c9c578384fd5b62001caa8a838b0162001a8d565b9096509450606089013591508082111562001cc3578384fd5b5062001cd289828a0162001a8d565b979a9699509497509295939492505050565b60008060006060848603121562001cf9578283fd5b833562001d068162001efd565b9250602084013562001d188162001efd565b91506040840135801515811462001d2d578182fd5b809150509250925092565b60006020828403121562001d4a578081fd5b5051919050565b60008284528282602086013780602084860101526020601f19601f85011685010190509392505050565b60006001600160a01b0380871683528086166020840152506060604083015262001daa60608301848662001d51565b9695505050505050565b60006001600160a01b03808a168352808916602084015260a0604084015262001de260a08401888a62001d51565b838103606085015262001df781878962001d51565b92505080841660808401525098975050505050505050565b60006001600160a01b0380871683526060602084015262001e3560608401868862001d51565b915080841660408401525095945050505050565b60006001600160a01b0380881683526080602084015262001e6f60808401878962001d51565b948116604084015292909216606090910152509392505050565b6000821982111562001e9f5762001e9f62001ee7565b500190565b60008262001ec057634e487b7160e01b81526012600452602481fd5b500490565b600081600019048311821515161562001ee25762001ee262001ee7565b500290565b634e487b7160e01b600052601160045260246000fd5b6001600160a01b038116811462001f1357600080fd5b5056fe60806040523480156200001157600080fd5b506040516200105c3803806200105c83398101604081905262000034916200022a565b62000041600033620000c2565b600480546001600160a01b0319166001600160a01b03861617905582516200007190600390602086019062000172565b506004805460ff60a01b191690554260075560006005819055600655600280546001600160a01b039384166001600160a01b0319918216179091556001805492909316911617905550620003aa9050565b620000ce8282620000d2565b5050565b6000828152602081815260408083206001600160a01b038516845290915290205460ff16620000ce576000828152602081815260408083206001600160a01b03851684529091529020805460ff191660011790556200012e3390565b6001600160a01b0316816001600160a01b0316837f2f8788117e7eff1d82e926ec794901d17c78024a50270940304540a733656f0d60405160405180910390a45050565b82805462000180906200033e565b90600052602060002090601f016020900481019282620001a45760008555620001ef565b82601f10620001bf57805160ff1916838001178555620001ef565b82800160010185558215620001ef579182015b82811115620001ef578251825591602001919060010190620001d2565b50620001fd92915062000201565b5090565b5b80821115620001fd576000815560010162000202565b8051620002258162000391565b919050565b6000806000806080858703121562000240578384fd5b84516200024d8162000391565b602086810151919550906001600160401b03808211156200026c578586fd5b818801915088601f83011262000280578586fd5b8151818111156200029557620002956200037b565b604051601f8201601f19908116603f01168101908382118183101715620002c057620002c06200037b565b816040528281528b86848701011115620002d8578889fd5b8893505b82841015620002fb5784840186015181850187015292850192620002dc565b828411156200030c57888684830101525b809850505050505050620003236040860162000218565b9150620003336060860162000218565b905092959194509250565b600181811c908216806200035357607f821691505b602082108114156200037557634e487b7160e01b600052602260045260246000fd5b50919050565b634e487b7160e01b600052604160045260246000fd5b6001600160a01b0381168114620003a757600080fd5b50565b610ca280620003ba6000396000f3fe608060405234801561001057600080fd5b50600436106101005760003560e01c80636763657411610097578063a217fddf11610066578063a217fddf1461025c578063d1dc9bd814610264578063d4f094b51461026d578063d547741f1461027657610100565b806367636574146101dd5780638af0cc6e146101f15780638dc45d9a146101fa57806391d148541461022557610100565b80632f2ff15d116100d35780632f2ff15d1461017d57806336568abe146101905780634463ec49146101a35780634bc02da6146101b657610100565b806301ffc9a7146101055780630ff49f261461012d5780631dedc6f714610142578063248a9ca31461014c575b600080fd5b610118610113366004610a98565b610289565b60405190151581526020015b60405180910390f35b610135610324565b6040516101249190610bb7565b61014a6103b2565b005b61016f61015a366004610a55565b60009081526020819052604090206001015490565b604051908152602001610124565b61014a61018b366004610a6d565b6105a4565b61014a61019e366004610a6d565b610641565b61014a6101b1366004610a1b565b6106c9565b61016f7f9d56108290ea0bc9c5c59c3ad357dca9d1b29ed7f3ae1443bef2fa2159bdf5e881565b60045461011890600160a01b900460ff1681565b61016f60075481565b60045461020d906001600160a01b031681565b6040516001600160a01b039091168152602001610124565b610118610233366004610a6d565b6000918252602082815260408084206001600160a01b0393909316845291905290205460ff1690565b61016f600081565b61016f60055481565b61016f60065481565b61014a610284366004610a6d565b61085a565b60007fffffffff0000000000000000000000000000000000000000000000000000000082167f7965db0b00000000000000000000000000000000000000000000000000000000148061031c57507f01ffc9a7000000000000000000000000000000000000000000000000000000007fffffffff000000000000000000000000000000000000000000000000000000008316145b90505b919050565b6003805461033190610c0a565b80601f016020809104026020016040519081016040528092919081815260200182805461035d90610c0a565b80156103aa5780601f1061037f576101008083540402835291602001916103aa565b820191906000526020600020905b81548152906001019060200180831161038d57829003601f168201915b505050505081565b3360009081527f60d27a4458aab6b352847091b9bd047730a6f421d79d3e60b87caf78a23077be602052604090205460ff1661045b5760405162461bcd60e51b815260206004820152602f60248201527f536565643a2043616c6c657220646f6573206e6f74206861766520707269766960448201527f6c65676520746f20636f6e73756d65000000000000000000000000000000000060648201526084015b60405180910390fd5b600454600160a01b900460ff16156104b55760405162461bcd60e51b815260206004820152601660248201527f536565643a20416c726561647920636f6e73756d6564000000000000000000006044820152606401610452565b600360055410156105085760405162461bcd60e51b815260206004820152601660248201527f536565643a204e6f7420656e6f756768206c696b6573000000000000000000006044820152606401610452565b600254600480546040516340c10f1960e01b81526001600160a01b039182169281019290925260016024830152909116906340c10f1990604401600060405180830381600087803b15801561055c57600080fd5b505af1158015610570573d6000803e3d6000fd5b5050600480547fffffffffffffffffffffff00ffffffffffffffffffffffffffffffffffffffff16600160a01b1790555050565b6000828152602081905260409020600101546105c1905b33610233565b6106335760405162461bcd60e51b815260206004820152602f60248201527f416363657373436f6e74726f6c3a2073656e646572206d75737420626520616e60448201527f2061646d696e20746f206772616e7400000000000000000000000000000000006064820152608401610452565b61063d82826108e7565b5050565b6001600160a01b03811633146106bf5760405162461bcd60e51b815260206004820152602f60248201527f416363657373436f6e74726f6c3a2063616e206f6e6c792072656e6f756e636560448201527f20726f6c657320666f722073656c6600000000000000000000000000000000006064820152608401610452565b61063d8282610985565b6001600160a01b03821660009081526008602052604090205460ff16156107585760405162461bcd60e51b815260206004820152602260248201527f536565643a2043616c6c65722068617320616c7265616479206576616c75617460448201527f65640000000000000000000000000000000000000000000000000000000000006064820152608401610452565b6001600160a01b0382166000908152600860205260409020805460ff19166001179055801561079b576005805490600061079183610c45565b91905055506107b1565b600680549060006107ab83610c45565b91905055505b600180546040516340c10f1960e01b81526001600160a01b03858116600483015260248201939093529116906340c10f1990604401600060405180830381600087803b15801561080057600080fd5b505af1158015610814573d6000803e3d6000fd5b505050507fcdbcf8386da026b46b2a93e0585ad73b04259ad30e0e02373c1a09d53cbcc069306003848460405161084e9493929190610adf565b60405180910390a15050565b600082815260208190526040902060010154610875906105bb565b6106bf5760405162461bcd60e51b815260206004820152603060248201527f416363657373436f6e74726f6c3a2073656e646572206d75737420626520616e60448201527f2061646d696e20746f207265766f6b65000000000000000000000000000000006064820152608401610452565b6000828152602081815260408083206001600160a01b038516845290915290205460ff1661063d576000828152602081815260408083206001600160a01b03851684529091529020805460ff191660011790556109413390565b6001600160a01b0316816001600160a01b0316837f2f8788117e7eff1d82e926ec794901d17c78024a50270940304540a733656f0d60405160405180910390a45050565b6000828152602081815260408083206001600160a01b038516845290915290205460ff161561063d576000828152602081815260408083206001600160a01b0385168085529252808320805460ff1916905551339285917ff6391f5c32d9c69d2a47ea670b442974b53935d1edc7fd64eb21e047a839171b9190a45050565b80356001600160a01b038116811461031f57600080fd5b60008060408385031215610a2d578182fd5b610a3683610a04565b915060208301358015158114610a4a578182fd5b809150509250929050565b600060208284031215610a66578081fd5b5035919050565b60008060408385031215610a7f578182fd5b82359150610a8f60208401610a04565b90509250929050565b600060208284031215610aa9578081fd5b81357fffffffff0000000000000000000000000000000000000000000000000000000081168114610ad8578182fd5b9392505050565b60006001600160a01b0386168252602060808184015281865483600182811c915080831680610b0f57607f831692505b858310811415610b2d57634e487b7160e01b87526022600452602487fd5b6080880183905260a08801818015610b4c5760018114610b5d57610b87565b60ff19861682528782019650610b87565b60008d815260209020895b86811015610b8157815484820152908501908901610b68565b83019750505b5050506001600160a01b038916604088015250919350610ba692505050565b821515606083015295945050505050565b6000602080835283518082850152825b81811015610be357858101830151858201604001528201610bc7565b81811115610bf45783604083870101525b50601f01601f1916929092016040019392505050565b600181811c90821680610c1e57607f821691505b60208210811415610c3f57634e487b7160e01b600052602260045260246000fd5b50919050565b6000600019821415610c6557634e487b7160e01b81526011600452602481fd5b506001019056fea2646970667358221220cac7549cdeff44aa76cb719a1133068cf0e8bb49684a976a9849f7c8b967856964736f6c6343000803003360806040526040516200223538038062002235833981016040819052620000269162000593565b83336200003560008262000169565b600180546001600160a01b039384166001600160a01b031991821617909155600280549290931691161790556200006e60003362000169565b620000ad6200008142626ebe006200063c565b60408051808201909152600f81526e1a5b9a5d1a585b0819195c1bdcda5d608a1b602082015262000179565b8251620000c29060059060208601906200043a565b50600780546001600160a01b038088166001600160a01b03199283161790925560088054928716929091169190911790558151620001089060069060208501906200043a565b5042600955600a805460ff19169055600480546001600160a01b0319166001600160a01b0383161790556200015e7f2561bf26f818282a3be40719542054d2173eb0d38539e8a8d3cff22f29fd23848262000169565b5050505050620006cd565b6200017582826200039a565b5050565b60003411620001cf5760405162461bcd60e51b815260206004820152601e60248201527f4465706f73697461626c653a206e6f2054464320746f206465706f736974000060448201526064015b60405180910390fd5b428210156200023a5760405162461bcd60e51b815260206004820152603060248201527f4465706f73697461626c653a2072656c656173652074696d652069732062656660448201526f6f72652063757272656e742074696d6560801b6064820152608401620001c6565b6040805160a081018252348152602080820185815260009383018481526060840185815260808501878152600380546001810182559752855160049097027fc2575a0e9e593c00f959f8c92f12db2869c3395a3b0502d05e2516446f71f85b810197885593517fc2575a0e9e593c00f959f8c92f12db2869c3395a3b0502d05e2516446f71f85c85015591517fc2575a0e9e593c00f959f8c92f12db2869c3395a3b0502d05e2516446f71f85d84018054925115156101000261ff00199215159290921661ffff199093169290921717905551805193948594909362000345937fc2575a0e9e593c00f959f8c92f12db2869c3395a3b0502d05e2516446f71f85e019201906200043a565b5050600154604080516001600160a01b0390921682526020820186905234908201527f90890809c654f11d6e72a28fa60149770a0d11ec6c92319d6ceb2bb0a4ea1a15915060600160405180910390a1505050565b6000828152602081815260408083206001600160a01b038516845290915290205460ff1662000175576000828152602081815260408083206001600160a01b03851684529091529020805460ff19166001179055620003f63390565b6001600160a01b0316816001600160a01b0316837f2f8788117e7eff1d82e926ec794901d17c78024a50270940304540a733656f0d60405160405180910390a45050565b828054620004489062000661565b90600052602060002090601f0160209004810192826200046c5760008555620004b7565b82601f106200048757805160ff1916838001178555620004b7565b82800160010185558215620004b7579182015b82811115620004b75782518255916020019190600101906200049a565b50620004c5929150620004c9565b5090565b5b80821115620004c55760008155600101620004ca565b600082601f830112620004f1578081fd5b81516001600160401b03808211156200050e576200050e6200069e565b604051601f8301601f19908116603f011681019082821181831017156200053957620005396200069e565b8160405283815260209250868385880101111562000555578485fd5b8491505b8382101562000578578582018301518183018401529082019062000559565b838211156200058957848385830101525b9695505050505050565b600080600080600060a08688031215620005ab578081fd5b8551620005b881620006b4565b6020870151909550620005cb81620006b4565b60408701519094506001600160401b0380821115620005e8578283fd5b620005f689838a01620004e0565b945060608801519150808211156200060c578283fd5b506200061b88828901620004e0565b92505060808601516200062e81620006b4565b809150509295509295909350565b600082198211156200065c57634e487b7160e01b81526011600452602481fd5b500190565b600181811c908216806200067657607f821691505b602082108114156200069857634e487b7160e01b600052602260045260246000fd5b50919050565b634e487b7160e01b600052604160045260246000fd5b6001600160a01b0381168114620006ca57600080fd5b50565b611b5880620006dd6000396000f3fe6080604052600436106101805760003560e01c806351e444ce116100d6578063b6b55f251161007f578063d41d0e5c11610059578063d41d0e5c14610487578063d547741f146104bb578063f1215d25146104db57610180565b8063b6b55f2514610420578063bde9e40e1461044d578063d01618151461046757610180565b80638dc45d9a116100b05780638dc45d9a146103a757806391d14854146103c7578063a217fddf1461040b57610180565b806351e444ce146103515780635e853676146103715780638af0cc6e1461039157610180565b80632f2ff15d1161013857806337bdc99b1161011257806337bdc99b146102c557806338af3eed146102e55780633ba9d5f71461031d57610180565b80632f2ff15d14610251578063353efdcf1461027157806336568abe146102a557610180565b80631c04cebf116101695780631c04cebf146101dc578063248a9ca3146101fe5780632eb4a7ab1461023c57610180565b806301ffc9a7146101855780630ff49f26146101ba575b600080fd5b34801561019157600080fd5b506101a56101a036600461173d565b6104ee565b60405190151581526020015b60405180910390f35b3480156101c657600080fd5b506101cf610587565b6040516101b191906119aa565b3480156101e857600080fd5b506101fc6101f73660046116f6565b610615565b005b34801561020a57600080fd5b5061022e6102193660046116f6565b60009081526020819052604090206001015490565b6040519081526020016101b1565b34801561024857600080fd5b506101cf6106ca565b34801561025d57600080fd5b506101fc61026c36600461170e565b6106d7565b34801561027d57600080fd5b5061022e7f2561bf26f818282a3be40719542054d2173eb0d38539e8a8d3cff22f29fd238481565b3480156102b157600080fd5b506101fc6102c036600461170e565b610774565b3480156102d157600080fd5b506101fc6102e03660046116f6565b6107fc565b3480156102f157600080fd5b50600154610305906001600160a01b031681565b6040516001600160a01b0390911681526020016101b1565b34801561032957600080fd5b5061022e7fdd796a674049e64e697ba39011ca704e44dc374226c44390b929e9b04adfb99881565b34801561035d57600080fd5b50600254610305906001600160a01b031681565b34801561037d57600080fd5b50600854610305906001600160a01b031681565b34801561039d57600080fd5b5061022e60095481565b3480156103b357600080fd5b50600754610305906001600160a01b031681565b3480156103d357600080fd5b506101a56103e236600461170e565b6000918252602082815260408084206001600160a01b0393909316845291905290205460ff1690565b34801561041757600080fd5b5061022e600081565b34801561042c57600080fd5b5061044061043b3660046116f6565b610a6b565b6040516101b191906119bd565b34801561045957600080fd5b50600a546101a59060ff1681565b34801561047357600080fd5b506101fc610482366004611784565b610c01565b34801561049357600080fd5b5061022e7fd262a1e181ec035692bcc8c920b971bccc173d5263f104f91c1561b5033679dd81565b3480156104c757600080fd5b506101fc6104d636600461170e565b610eb9565b6101fc6104e936600461182d565b610f46565b60007fffffffff0000000000000000000000000000000000000000000000000000000082167f7965db0b00000000000000000000000000000000000000000000000000000000148061058157507f01ffc9a7000000000000000000000000000000000000000000000000000000007fffffffff000000000000000000000000000000000000000000000000000000008316145b92915050565b6005805461059490611a95565b80601f01602080910402602001604051908101604052809291908181526020018280546105c090611a95565b801561060d5780601f106105e25761010080835404028352916020019161060d565b820191906000526020600020905b8154815290600101906020018083116105f057829003601f168201915b505050505081565b3360009081527f042d271402c8b0a2dde1f234cd713ed24839077936be3418c521578feee536b9602052604090205460ff166106be5760405162461bcd60e51b815260206004820152603560248201527f4465706f73697461626c653a2043616c6c657220646f6573206e6f742068617660448201527f652070726976696c65676520746f2070756e697368000000000000000000000060648201526084015b60405180910390fd5b6106c781610ff4565b50565b6006805461059490611a95565b6000828152602081905260409020600101546106f4905b336103e2565b6107665760405162461bcd60e51b815260206004820152602f60248201527f416363657373436f6e74726f6c3a2073656e646572206d75737420626520616e60448201527f2061646d696e20746f206772616e74000000000000000000000000000000000060648201526084016106b5565b610770828261126d565b5050565b6001600160a01b03811633146107f25760405162461bcd60e51b815260206004820152602f60248201527f416363657373436f6e74726f6c3a2063616e206f6e6c792072656e6f756e636560448201527f20726f6c657320666f722073656c66000000000000000000000000000000000060648201526084016106b5565b610770828261130b565b600061080782610a6b565b905080602001514210156108835760405162461bcd60e51b815260206004820152603060248201527f4465706f73697461626c653a2043757272656e742074696d652069732062656660448201527f6f72652072656c656173652074696d650000000000000000000000000000000060648201526084016106b5565b8060400151156108d55760405162461bcd60e51b815260206004820152601d60248201527f4465706f73697461626c653a204465706f7369742070756e697368656400000060448201526064016106b5565b8060600151156109355760405162461bcd60e51b815260206004820152602560248201527f4465706f73697461626c653a204465706f73697420616c72656164792072656c60448201526419585cd95960da1b60648201526084016106b5565b60015481516040516001600160a01b039092169181156108fc0291906000818181858888f19350505050158015610970573d6000803e3d6000fd5b5060016060820152600380548291908490811061099d57634e487b7160e01b600052603260045260246000fd5b600091825260209182902083516004909202019081558282015160018201556040830151600282018054606086015115156101000261ff00199315159390931661ffff1990911617919091179055608083015180519192610a069260038501929091019061165d565b50506001546020838101518451604080516001600160a01b03909516855292840191909152429183019190915260608201527f6d0f8bf20fdbf0501c403fa7863679b821f006a63b09c689ee2687d00220edf991506080015b60405180910390a15050565b610aa16040518060a001604052806000815260200160008152602001600015158152602001600015158152602001606081525090565b6003548210610af25760405162461bcd60e51b815260206004820152601f60248201527f4465706f73697461626c653a20496e646578206f7574206f662072616e67650060448201526064016106b5565b60038281548110610b1357634e487b7160e01b600052603260045260246000fd5b60009182526020918290206040805160a081018252600490930290910180548352600181015493830193909352600283015460ff80821615159284019290925261010090041615156060820152600382018054919291608084019190610b7890611a95565b80601f0160208091040260200160405190810160405280929190818152602001828054610ba490611a95565b8015610bf15780601f10610bc657610100808354040283529160200191610bf1565b820191906000526020600020905b815481529060010190602001808311610bd457829003601f168201915b5050505050815250509050919050565b3360009081527f70912f16addbccb216ad6bdad396e8fdf5835d1a3528876519bbd4a04c7c193b602052604090205460ff16610ca55760405162461bcd60e51b815260206004820152603d60248201527f536563746f723a2043616c6c657220646f6573206e6f7420686176652070726960448201527f76696c65676520746f207375626d697420766572696669636174696f6e00000060648201526084016106b5565b600a5460ff1615610d1e5760405162461bcd60e51b815260206004820152602560248201527f536563746f723a20536563746f7220697320616c726561647920696e76616c6960448201527f646174656400000000000000000000000000000000000000000000000000000060648201526084016106b5565b816001600160a01b0316631dedc6f76040518163ffffffff1660e01b8152600401600060405180830381600087803b158015610d5957600080fd5b505af1158015610d6d573d6000803e3d6000fd5b505050508015610dfa57600480546040517f40c10f190000000000000000000000000000000000000000000000000000000081523092810192909252600160248301526001600160a01b0316906340c10f1990604401600060405180830381600087803b158015610ddd57600080fd5b505af1158015610df1573d6000803e3d6000fd5b50505050610e0f565b600a805460ff19166001179055610e0f61138a565b7fe68b65efd72273d974bdbb78eaf94ea617d40992b7112fc060ef81ed2373f9e2306005846001600160a01b0316630ff49f266040518163ffffffff1660e01b815260040160006040518083038186803b158015610e6c57600080fd5b505afa158015610e80573d6000803e3d6000fd5b505050506040513d6000823e601f3d908101601f19168201604052610ea891908101906117b5565b84604051610a5f94939291906118d8565b600082815260208190526040902060010154610ed4906106ee565b6107f25760405162461bcd60e51b815260206004820152603060248201527f416363657373436f6e74726f6c3a2073656e646572206d75737420626520616e60448201527f2061646d696e20746f207265766f6b650000000000000000000000000000000060648201526084016106b5565b3360009081527f1d2212336a8094c2d6b1556a6593bc8bfe4d81ee6a63d158a870d84931aac374602052604090205460ff16610fea5760405162461bcd60e51b815260206004820152603660248201527f4465706f73697461626c653a2043616c6c657220646f6573206e6f742068617660448201527f652070726976696c65676520746f206465706f7369740000000000000000000060648201526084016106b5565b6107708282611439565b6000610fff82610a6b565b9050806020015142101561107b5760405162461bcd60e51b815260206004820152603060248201527f4465706f73697461626c653a2043757272656e742074696d652069732062656660448201527f6f72652072656c656173652074696d650000000000000000000000000000000060648201526084016106b5565b8060400151156110f35760405162461bcd60e51b815260206004820152602560248201527f4465706f73697461626c653a204465706f73697420616c72656164792070756e60448201527f697368656400000000000000000000000000000000000000000000000000000060648201526084016106b5565b8060600151156111535760405162461bcd60e51b815260206004820152602560248201527f4465706f73697461626c653a204465706f73697420616c72656164792072656c60448201526419585cd95960da1b60648201526084016106b5565b60025481516040516001600160a01b039092169181156108fc0291906000818181858888f1935050505015801561118e573d6000803e3d6000fd5b506001604082015260038054829190849081106111bb57634e487b7160e01b600052603260045260246000fd5b600091825260209182902083516004909202019081558282015160018201556040830151600282018054606086015115156101000261ff00199315159390931661ffff19909116179190911790556080830151805191926112249260038501929091019061165d565b50506001548251604080516001600160a01b03909316835260208301919091527febbcaaf6b9aa8b4083ae4b2f842c8de6f75319018e7b5e141a1e87aebadde6c3925001610a5f565b6000828152602081815260408083206001600160a01b038516845290915290205460ff16610770576000828152602081815260408083206001600160a01b03851684529091529020805460ff191660011790556112c73390565b6001600160a01b0316816001600160a01b0316837f2f8788117e7eff1d82e926ec794901d17c78024a50270940304540a733656f0d60405160405180910390a45050565b6000828152602081815260408083206001600160a01b038516845290915290205460ff1615610770576000828152602081815260408083206001600160a01b0385168085529252808320805460ff1916905551339285917ff6391f5c32d9c69d2a47ea670b442974b53935d1edc7fd64eb21e047a839171b9190a45050565b60005b6003548110156106c757600381815481106113b857634e487b7160e01b600052603260045260246000fd5b906000526020600020906004020160020160019054906101000a900460ff1615801561141957506003818154811061140057634e487b7160e01b600052603260045260246000fd5b600091825260209091206002600490920201015460ff16155b156114275761142781610ff4565b8061143181611ad0565b91505061138d565b600034116114895760405162461bcd60e51b815260206004820152601e60248201527f4465706f73697461626c653a206e6f2054464320746f206465706f736974000060448201526064016106b5565b428210156114ff5760405162461bcd60e51b815260206004820152603060248201527f4465706f73697461626c653a2072656c656173652074696d652069732062656660448201527f6f72652063757272656e742074696d650000000000000000000000000000000060648201526084016106b5565b6040805160a081018252348152602080820185815260009383018481526060840185815260808501878152600380546001810182559752855160049097027fc2575a0e9e593c00f959f8c92f12db2869c3395a3b0502d05e2516446f71f85b810197885593517fc2575a0e9e593c00f959f8c92f12db2869c3395a3b0502d05e2516446f71f85c85015591517fc2575a0e9e593c00f959f8c92f12db2869c3395a3b0502d05e2516446f71f85d84018054925115156101000261ff00199215159290921661ffff1990931692909217179055518051939485949093611608937fc2575a0e9e593c00f959f8c92f12db2869c3395a3b0502d05e2516446f71f85e0192019061165d565b5050600154604080516001600160a01b0390921682526020820186905234908201527f90890809c654f11d6e72a28fa60149770a0d11ec6c92319d6ceb2bb0a4ea1a15915060600160405180910390a1505050565b82805461166990611a95565b90600052602060002090601f01602090048101928261168b57600085556116d1565b82601f106116a457805160ff19168380011785556116d1565b828001600101855582156116d1579182015b828111156116d15782518255916020019190600101906116b6565b506116dd9291506116e1565b5090565b5b808211156116dd57600081556001016116e2565b600060208284031215611707578081fd5b5035919050565b60008060408385031215611720578081fd5b82359150602083013561173281611b0d565b809150509250929050565b60006020828403121561174e578081fd5b81357fffffffff000000000000000000000000000000000000000000000000000000008116811461177d578182fd5b9392505050565b60008060408385031215611796578182fd5b82356117a181611b0d565b915060208301358015158114611732578182fd5b6000602082840312156117c6578081fd5b815167ffffffffffffffff8111156117dc578182fd5b8201601f810184136117ec578182fd5b80516117ff6117fa82611a3d565b611a0c565b818152856020838501011115611813578384fd5b611824826020830160208601611a65565b95945050505050565b6000806040838503121561183f578182fd5b82359150602083013567ffffffffffffffff81111561185c578182fd5b8301601f8101851361186c578182fd5b803561187a6117fa82611a3d565b81815286602083850101111561188e578384fd5b81602084016020830137908101602001929092525090939092509050565b600081518084526118c4816020860160208601611a65565b601f01601f19169290920160200192915050565b60006001600160a01b0386168252602060808184015281865483600182811c91508083168061190857607f831692505b85831081141561192657634e487b7160e01b87526022600452602487fd5b6080880183905260a08801818015611945576001811461195657611980565b60ff19861682528782019650611980565b60008d815260209020895b8681101561197a57815484820152908501908901611961565b83019750505b505050505050838103604085015261199881876118ac565b92505050611824606083018415159052565b60006020825261177d60208301846118ac565b6000602082528251602083015260208301516040830152604083015115156060830152606083015115156080830152608083015160a080840152611a0460c08401826118ac565b949350505050565b604051601f8201601f1916810167ffffffffffffffff81118282101715611a3557611a35611af7565b604052919050565b600067ffffffffffffffff821115611a5757611a57611af7565b50601f01601f191660200190565b60005b83811015611a80578181015183820152602001611a68565b83811115611a8f576000848401525b50505050565b600181811c90821680611aa957607f821691505b60208210811415611aca57634e487b7160e01b600052602260045260246000fd5b50919050565b6000600019821415611af057634e487b7160e01b81526011600452602481fd5b5060010190565b634e487b7160e01b600052604160045260246000fd5b6001600160a01b03811681146106c757600080fdfea264697066735822122059b8866d6fc545eb64c816e10c3107c58d80bf7dd18528909c220b0ac585784964736f6c6343000803003360806040523480156200001157600080fd5b5060405162000af138038062000af1833981016040819052620000349162000203565b6200004160008262000090565b600180546001600160a01b038084166001600160a01b031992831617909255600280549286169290911691909117905581516200008690600390602085019062000140565b5050505062000355565b6200009c8282620000a0565b5050565b6000828152602081815260408083206001600160a01b038516845290915290205460ff166200009c576000828152602081815260408083206001600160a01b03851684529091529020805460ff19166001179055620000fc3390565b6001600160a01b0316816001600160a01b0316837f2f8788117e7eff1d82e926ec794901d17c78024a50270940304540a733656f0d60405160405180910390a45050565b8280546200014e9062000302565b90600052602060002090601f016020900481019282620001725760008555620001bd565b82601f106200018d57805160ff1916838001178555620001bd565b82800160010185558215620001bd579182015b82811115620001bd578251825591602001919060010190620001a0565b50620001cb929150620001cf565b5090565b5b80821115620001cb5760008155600101620001d0565b80516001600160a01b0381168114620001fe57600080fd5b919050565b60008060006060848603121562000218578283fd5b6200022384620001e6565b602085810151919450906001600160401b038082111562000242578485fd5b818701915087601f83011262000256578485fd5b8151818111156200026b576200026b6200033f565b604051601f8201601f19908116603f011681019083821181831017156200029657620002966200033f565b816040528281528a86848701011115620002ae578788fd5b8793505b82841015620002d15784840186015181850187015292850192620002b2565b82841115620002e257878684830101525b809750505050505050620002f960408501620001e6565b90509250925092565b600181811c908216806200031757607f821691505b602082108114156200033957634e487b7160e01b600052602260045260246000fd5b50919050565b634e487b7160e01b600052604160045260246000fd5b61078c80620003656000396000f3fe608060405234801561001057600080fd5b50600436106100c95760003560e01c806336568abe11610081578063a217fddf1161005b578063a217fddf146101d9578063a9c0c694146101e1578063d547741f14610208576100c9565b806336568abe1461017c5780638da5cb5b1461018f57806391d14854146101a2576100c9565b8063248a9ca3116100b2578063248a9ca31461010b5780632e53c5b01461013c5780632f2ff15d14610167576100c9565b806301ffc9a7146100ce5780630ff49f26146100f6575b600080fd5b6100e16100dc366004610668565b61021b565b60405190151581526020015b60405180910390f35b6100fe6102b4565b6040516100ed91906106af565b61012e610119366004610616565b60009081526020819052604090206001015490565b6040519081526020016100ed565b60015461014f906001600160a01b031681565b6040516001600160a01b0390911681526020016100ed565b61017a61017536600461062e565b610342565b005b61017a61018a36600461062e565b6103e4565b60025461014f906001600160a01b031681565b6100e16101b036600461062e565b6000918252602082815260408084206001600160a01b0393909316845291905290205460ff1690565b61012e600081565b61012e7f8a8601cc8e9efb544266baca5bffc5cea11aed5de937dc37810fd002b4010eac81565b61017a61021636600461062e565b61046c565b60007fffffffff0000000000000000000000000000000000000000000000000000000082167f7965db0b0000000000000000000000000000000000000000000000000000000014806102ae57507f01ffc9a7000000000000000000000000000000000000000000000000000000007fffffffff000000000000000000000000000000000000000000000000000000008316145b92915050565b600380546102c190610702565b80601f01602080910402602001604051908101604052809291908181526020018280546102ed90610702565b801561033a5780601f1061030f5761010080835404028352916020019161033a565b820191906000526020600020905b81548152906001019060200180831161031d57829003601f168201915b505050505081565b60008281526020819052604090206001015461035f905b336101b0565b6103d65760405162461bcd60e51b815260206004820152602f60248201527f416363657373436f6e74726f6c3a2073656e646572206d75737420626520616e60448201527f2061646d696e20746f206772616e74000000000000000000000000000000000060648201526084015b60405180910390fd5b6103e082826104f9565b5050565b6001600160a01b03811633146104625760405162461bcd60e51b815260206004820152602f60248201527f416363657373436f6e74726f6c3a2063616e206f6e6c792072656e6f756e636560448201527f20726f6c657320666f722073656c66000000000000000000000000000000000060648201526084016103cd565b6103e08282610597565b60008281526020819052604090206001015461048790610359565b6104625760405162461bcd60e51b815260206004820152603060248201527f416363657373436f6e74726f6c3a2073656e646572206d75737420626520616e60448201527f2061646d696e20746f207265766f6b650000000000000000000000000000000060648201526084016103cd565b6000828152602081815260408083206001600160a01b038516845290915290205460ff166103e0576000828152602081815260408083206001600160a01b03851684529091529020805460ff191660011790556105533390565b6001600160a01b0316816001600160a01b0316837f2f8788117e7eff1d82e926ec794901d17c78024a50270940304540a733656f0d60405160405180910390a45050565b6000828152602081815260408083206001600160a01b038516845290915290205460ff16156103e0576000828152602081815260408083206001600160a01b0385168085529252808320805460ff1916905551339285917ff6391f5c32d9c69d2a47ea670b442974b53935d1edc7fd64eb21e047a839171b9190a45050565b600060208284031215610627578081fd5b5035919050565b60008060408385031215610640578081fd5b8235915060208301356001600160a01b038116811461065d578182fd5b809150509250929050565b600060208284031215610679578081fd5b81357fffffffff00000000000000000000000000000000000000000000000000000000811681146106a8578182fd5b9392505050565b6000602080835283518082850152825b818110156106db578581018301518582016040015282016106bf565b818111156106ec5783604083870101525b50601f01601f1916929092016040019392505050565b600181811c9082168061071657607f821691505b60208210811415610750577f4e487b7100000000000000000000000000000000000000000000000000000000600052602260045260246000fd5b5091905056fea2646970667358221220e9c6d6c47be0c1db78dd8cdeb856f19eedf684b3a22ef7dc11562bcbc5df052d64736f6c63430008030033a264697066735822122082942a10bb35502363397ad56521b4ca0562333a534e63ac42c7709bd808414564736f6c63430008030033",
  "linkReferences": {},
  "deployedLinkReferences": {}
}