{
  "_format": "hh-sol-artifact-1",
  "contractName": "Depositable",
  "sourceName": "contracts/Depositable.sol",
  "abi": [
    {
      "inputs": [
        {
          "internalType": "address payable",
          "name": "beneficiary_",
          "type": "address"
        },
        {
          "internalType": "address payable",
          "name": "punishPool_",
          "type": "address"
        }
      ],
      "stateMutability": "nonpayable",
      "type": "constructor"
    },
    {
      "anonymous": false,
      "inputs": [
        {
          "indexed": false,
          "internalType": "uint256",
          "name": "position",
          "type": "uint256"
        },
        {
          "indexed": false,
          "internalType": "address",
          "name": "beneficiary",
          "type": "address"
        },
        {
          "indexed": false,
          "internalType": "uint256",
          "name": "releaseTime",
          "type": "uint256"
        },
        {
          "indexed": false,
          "internalType": "uint256",
          "name": "amount",
          "type": "uint256"
        }
      ],
      "name": "Deposit",
      "type": "event"
    },
    {
      "anonymous": false,
      "inputs": [
        {
          "indexed": false,
          "internalType": "uint256",
          "name": "position",
          "type": "uint256"
        },
        {
          "indexed": false,
          "internalType": "address",
          "name": "beneficiary",
          "type": "address"
        },
        {
          "indexed": false,
          "internalType": "uint256",
          "name": "amount",
          "type": "uint256"
        }
      ],
      "name": "Punish",
      "type": "event"
    },
    {
      "anonymous": false,
      "inputs": [
        {
          "indexed": false,
          "internalType": "uint256",
          "name": "position",
          "type": "uint256"
        },
        {
          "indexed": false,
          "internalType": "address",
          "name": "beneficiary",
          "type": "address"
        },
        {
          "indexed": false,
          "internalType": "uint256",
          "name": "enforcedReleaseTime",
          "type": "uint256"
        },
        {
          "indexed": false,
          "internalType": "uint256",
          "name": "realReleaseTime",
          "type": "uint256"
        },
        {
          "indexed": false,
          "internalType": "uint256",
          "name": "amount",
          "type": "uint256"
        }
      ],
      "name": "Release",
      "type": "event"
    },
    {
      "anonymous": false,
      "inputs": [
        {
          "indexed": true,
          "internalType": "bytes32",
          "name": "role",
          "type": "bytes32"
        },
        {
          "indexed": true,
          "internalType": "bytes32",
          "name": "previousAdminRole",
          "type": "bytes32"
        },
        {
          "indexed": true,
          "internalType": "bytes32",
          "name": "newAdminRole",
          "type": "bytes32"
        }
      ],
      "name": "RoleAdminChanged",
      "type": "event"
    },
    {
      "anonymous": false,
      "inputs": [
        {
          "indexed": true,
          "internalType": "bytes32",
          "name": "role",
          "type": "bytes32"
        },
        {
          "indexed": true,
          "internalType": "address",
          "name": "account",
          "type": "address"
        },
        {
          "indexed": true,
          "internalType": "address",
          "name": "sender",
          "type": "address"
        }
      ],
      "name": "RoleGranted",
      "type": "event"
    },
    {
      "anonymous": false,
      "inputs": [
        {
          "indexed": true,
          "internalType": "bytes32",
          "name": "role",
          "type": "bytes32"
        },
        {
          "indexed": true,
          "internalType": "address",
          "name": "account",
          "type": "address"
        },
        {
          "indexed": true,
          "internalType": "address",
          "name": "sender",
          "type": "address"
        }
      ],
      "name": "RoleRevoked",
      "type": "event"
    },
    {
      "inputs": [],
      "name": "DEFAULT_ADMIN_ROLE",
      "outputs": [
        {
          "internalType": "bytes32",
          "name": "",
          "type": "bytes32"
        }
      ],
      "stateMutability": "view",
      "type": "function"
    },
    {
      "inputs": [],
      "name": "DEPOSIT_ROLE",
      "outputs": [
        {
          "internalType": "bytes32",
          "name": "",
          "type": "bytes32"
        }
      ],
      "stateMutability": "view",
      "type": "function"
    },
    {
      "inputs": [],
      "name": "PUNISH_ROLE",
      "outputs": [
        {
          "internalType": "bytes32",
          "name": "",
          "type": "bytes32"
        }
      ],
      "stateMutability": "view",
      "type": "function"
    },
    {
      "inputs": [],
      "name": "beneficiary",
      "outputs": [
        {
          "internalType": "address payable",
          "name": "",
          "type": "address"
        }
      ],
      "stateMutability": "view",
      "type": "function"
    },
    {
      "inputs": [
        {
          "internalType": "uint256",
          "name": "index_",
          "type": "uint256"
        }
      ],
      "name": "deposit",
      "outputs": [
        {
          "components": [
            {
              "internalType": "uint256",
              "name": "amount",
              "type": "uint256"
            },
            {
              "internalType": "uint256",
              "name": "releaseTime",
              "type": "uint256"
            },
            {
              "internalType": "bool",
              "name": "punished",
              "type": "bool"
            },
            {
              "internalType": "bool",
              "name": "released",
              "type": "bool"
            },
            {
              "internalType": "string",
              "name": "comment",
              "type": "string"
            }
          ],
          "internalType": "struct Depositable.Dep",
          "name": "",
          "type": "tuple"
        }
      ],
      "stateMutability": "view",
      "type": "function"
    },
    {
      "inputs": [
        {
          "internalType": "uint256",
          "name": "releaseTime_",
          "type": "uint256"
        },
        {
          "internalType": "string",
          "name": "comment_",
          "type": "string"
        }
      ],
      "name": "deposit",
      "outputs": [],
      "stateMutability": "payable",
      "type": "function"
    },
    {
      "inputs": [
        {
          "internalType": "bytes32",
          "name": "role",
          "type": "bytes32"
        }
      ],
      "name": "getRoleAdmin",
      "outputs": [
        {
          "internalType": "bytes32",
          "name": "",
          "type": "bytes32"
        }
      ],
      "stateMutability": "view",
      "type": "function"
    },
    {
      "inputs": [
        {
          "internalType": "bytes32",
          "name": "role",
          "type": "bytes32"
        },
        {
          "internalType": "address",
          "name": "account",
          "type": "address"
        }
      ],
      "name": "grantRole",
      "outputs": [],
      "stateMutability": "nonpayable",
      "type": "function"
    },
    {
      "inputs": [
        {
          "internalType": "bytes32",
          "name": "role",
          "type": "bytes32"
        },
        {
          "internalType": "address",
          "name": "account",
          "type": "address"
        }
      ],
      "name": "hasRole",
      "outputs": [
        {
          "internalType": "bool",
          "name": "",
          "type": "bool"
        }
      ],
      "stateMutability": "view",
      "type": "function"
    },
    {
      "inputs": [],
      "name": "numDeposits",
      "outputs": [
        {
          "internalType": "uint256",
          "name": "",
          "type": "uint256"
        }
      ],
      "stateMutability": "view",
      "type": "function"
    },
    {
      "inputs": [
        {
          "internalType": "uint256",
          "name": "index_",
          "type": "uint256"
        }
      ],
      "name": "punish",
      "outputs": [],
      "stateMutability": "nonpayable",
      "type": "function"
    },
    {
      "inputs": [],
      "name": "punishPool",
      "outputs": [
        {
          "internalType": "address payable",
          "name": "",
          "type": "address"
        }
      ],
      "stateMutability": "view",
      "type": "function"
    },
    {
      "inputs": [
        {
          "internalType": "uint256",
          "name": "index_",
          "type": "uint256"
        }
      ],
      "name": "release",
      "outputs": [],
      "stateMutability": "nonpayable",
      "type": "function"
    },
    {
      "inputs": [
        {
          "internalType": "bytes32",
          "name": "role",
          "type": "bytes32"
        },
        {
          "internalType": "address",
          "name": "account",
          "type": "address"
        }
      ],
      "name": "renounceRole",
      "outputs": [],
      "stateMutability": "nonpayable",
      "type": "function"
    },
    {
      "inputs": [
        {
          "internalType": "bytes32",
          "name": "role",
          "type": "bytes32"
        },
        {
          "internalType": "address",
          "name": "account",
          "type": "address"
        }
      ],
      "name": "revokeRole",
      "outputs": [],
      "stateMutability": "nonpayable",
      "type": "function"
    },
    {
      "inputs": [
        {
          "internalType": "bytes4",
          "name": "interfaceId",
          "type": "bytes4"
        }
      ],
      "name": "supportsInterface",
      "outputs": [
        {
          "internalType": "bool",
          "name": "",
          "type": "bool"
        }
      ],
      "stateMutability": "view",
      "type": "function"
    }
  ],
  "bytecode": "0x60806040523480156200001157600080fd5b50604051620015a1380380620015a1833981016040819052620000349162000140565b6200004160003362000073565b600180546001600160a01b039384166001600160a01b0319918216179091556002805492909316911617905562000177565b6200007f828262000083565b5050565b6000828152602081815260408083206001600160a01b038516845290915290205460ff166200007f576000828152602081815260408083206001600160a01b03851684529091529020805460ff19166001179055620000df3390565b6001600160a01b0316816001600160a01b0316837f2f8788117e7eff1d82e926ec794901d17c78024a50270940304540a733656f0d60405160405180910390a45050565b80516001600160a01b03811681146200013b57600080fd5b919050565b6000806040838503121562000153578182fd5b6200015e8362000123565b91506200016e6020840162000123565b90509250929050565b61141a80620001876000396000f3fe6080604052600436106100f35760003560e01c80633ba9d5f71161008a578063b6b55f2511610059578063b6b55f2514610306578063bbd4e8c914610333578063d547741f14610348578063f1215d2514610368576100f3565b80633ba9d5f71461025957806351e444ce1461028d57806391d14854146102ad578063a217fddf146102f1576100f3565b8063353efdcf116100c6578063353efdcf146101ad57806336568abe146101e157806337bdc99b1461020157806338af3eed14610221576100f3565b806301ffc9a7146100f85780631c04cebf1461012d578063248a9ca31461014f5780632f2ff15d1461018d575b600080fd5b34801561010457600080fd5b506101186101133660046111ec565b61037b565b60405190151581526020015b60405180910390f35b34801561013957600080fd5b5061014d61014836600461119a565b610414565b005b34801561015b57600080fd5b5061017f61016a36600461119a565b60009081526020819052604090206001015490565b604051908152602001610124565b34801561019957600080fd5b5061014d6101a83660046111b2565b6104c9565b3480156101b957600080fd5b5061017f7f2561bf26f818282a3be40719542054d2173eb0d38539e8a8d3cff22f29fd238481565b3480156101ed57600080fd5b5061014d6101fc3660046111b2565b610566565b34801561020d57600080fd5b5061014d61021c36600461119a565b6105ee565b34801561022d57600080fd5b50600154610241906001600160a01b031681565b6040516001600160a01b039091168152602001610124565b34801561026557600080fd5b5061017f7fdd796a674049e64e697ba39011ca704e44dc374226c44390b929e9b04adfb99881565b34801561029957600080fd5b50600254610241906001600160a01b031681565b3480156102b957600080fd5b506101186102c83660046111b2565b6000918252602082815260408084206001600160a01b0393909316845291905290205460ff1690565b3480156102fd57600080fd5b5061017f600081565b34801561031257600080fd5b5061032661032136600461119a565b610860565b60405161012491906112e9565b34801561033f57600080fd5b5060035461017f565b34801561035457600080fd5b5061014d6103633660046111b2565b6109f6565b61014d610376366004611233565b610a83565b60007fffffffff0000000000000000000000000000000000000000000000000000000082167f7965db0b00000000000000000000000000000000000000000000000000000000148061040e57507f01ffc9a7000000000000000000000000000000000000000000000000000000007fffffffff000000000000000000000000000000000000000000000000000000008316145b92915050565b3360009081527f042d271402c8b0a2dde1f234cd713ed24839077936be3418c521578feee536b9602052604090205460ff166104bd5760405162461bcd60e51b815260206004820152603560248201527f4465706f73697461626c653a2043616c6c657220646f6573206e6f742068617660448201527f652070726976696c65676520746f2070756e697368000000000000000000000060648201526084015b60405180910390fd5b6104c681610b31565b50565b6000828152602081905260409020600101546104e6905b336102c8565b6105585760405162461bcd60e51b815260206004820152602f60248201527f416363657373436f6e74726f6c3a2073656e646572206d75737420626520616e60448201527f2061646d696e20746f206772616e74000000000000000000000000000000000060648201526084016104b4565b6105628282610dac565b5050565b6001600160a01b03811633146105e45760405162461bcd60e51b815260206004820152602f60248201527f416363657373436f6e74726f6c3a2063616e206f6e6c792072656e6f756e636560448201527f20726f6c657320666f722073656c66000000000000000000000000000000000060648201526084016104b4565b6105628282610e4a565b60006105f982610860565b905080602001514210156106755760405162461bcd60e51b815260206004820152603060248201527f4465706f73697461626c653a2043757272656e742074696d652069732062656660448201527f6f72652072656c656173652074696d650000000000000000000000000000000060648201526084016104b4565b8060400151156106c75760405162461bcd60e51b815260206004820152601d60248201527f4465706f73697461626c653a204465706f7369742070756e697368656400000060448201526064016104b4565b8060600151156107275760405162461bcd60e51b815260206004820152602560248201527f4465706f73697461626c653a204465706f73697420616c72656164792072656c60448201526419585cd95960da1b60648201526084016104b4565b60015481516040516001600160a01b039092169181156108fc0291906000818181858888f19350505050158015610762573d6000803e3d6000fd5b5060016060820152600380548291908490811061078f57634e487b7160e01b600052603260045260246000fd5b600091825260209182902083516004909202019081558282015160018201556040830151600282018054606086015115156101000261ff00199315159390931661ffff19909116179190911790556080830151805191926107f892600385019290910190611101565b50506001546020838101518451604080518881526001600160a01b03909516938501939093529183015242606083015260808201527f73d25490e3631d73af955b1d8767a17fedd5857ced85cd62c9edac6a55162379915060a0015b60405180910390a15050565b6108966040518060a001604052806000815260200160008152602001600015158152602001600015158152602001606081525090565b60035482106108e75760405162461bcd60e51b815260206004820152601f60248201527f4465706f73697461626c653a20496e646578206f7574206f662072616e67650060448201526064016104b4565b6003828154811061090857634e487b7160e01b600052603260045260246000fd5b60009182526020918290206040805160a081018252600490930290910180548352600181015493830193909352600283015460ff8082161515928401929092526101009004161515606082015260038201805491929160808401919061096d90611393565b80601f016020809104026020016040519081016040528092919081815260200182805461099990611393565b80156109e65780601f106109bb576101008083540402835291602001916109e6565b820191906000526020600020905b8154815290600101906020018083116109c957829003601f168201915b5050505050815250509050919050565b600082815260208190526040902060010154610a11906104e0565b6105e45760405162461bcd60e51b815260206004820152603060248201527f416363657373436f6e74726f6c3a2073656e646572206d75737420626520616e60448201527f2061646d696e20746f207265766f6b650000000000000000000000000000000060648201526084016104b4565b3360009081527f1d2212336a8094c2d6b1556a6593bc8bfe4d81ee6a63d158a870d84931aac374602052604090205460ff16610b275760405162461bcd60e51b815260206004820152603660248201527f4465706f73697461626c653a2043616c6c657220646f6573206e6f742068617660448201527f652070726976696c65676520746f206465706f7369740000000000000000000060648201526084016104b4565b6105628282610ec9565b6000610b3c82610860565b905080602001514210610bb75760405162461bcd60e51b815260206004820152602f60248201527f4465706f73697461626c653a2043757272656e742074696d652069732061667460448201527f65722072656c656173652074696d65000000000000000000000000000000000060648201526084016104b4565b806040015115610c2f5760405162461bcd60e51b815260206004820152602560248201527f4465706f73697461626c653a204465706f73697420616c72656164792070756e60448201527f697368656400000000000000000000000000000000000000000000000000000060648201526084016104b4565b806060015115610c8f5760405162461bcd60e51b815260206004820152602560248201527f4465706f73697461626c653a204465706f73697420616c72656164792072656c60448201526419585cd95960da1b60648201526084016104b4565b60025481516040516001600160a01b039092169181156108fc0291906000818181858888f19350505050158015610cca573d6000803e3d6000fd5b50600160408201526003805482919084908110610cf757634e487b7160e01b600052603260045260246000fd5b600091825260209182902083516004909202019081558282015160018201556040830151600282018054606086015115156101000261ff00199315159390931661ffff1990911617919091179055608083015180519192610d6092600385019290910190611101565b50506001548251604080518681526001600160a01b0390931660208401528201527fcedab0303a0b220beb3be6ea582ca81a5793d09876ab28ca0cf76b6d5e9acd109150606001610854565b6000828152602081815260408083206001600160a01b038516845290915290205460ff16610562576000828152602081815260408083206001600160a01b03851684529091529020805460ff19166001179055610e063390565b6001600160a01b0316816001600160a01b0316837f2f8788117e7eff1d82e926ec794901d17c78024a50270940304540a733656f0d60405160405180910390a45050565b6000828152602081815260408083206001600160a01b038516845290915290205460ff1615610562576000828152602081815260408083206001600160a01b0385168085529252808320805460ff1916905551339285917ff6391f5c32d9c69d2a47ea670b442974b53935d1edc7fd64eb21e047a839171b9190a45050565b60003411610f195760405162461bcd60e51b815260206004820152601e60248201527f4465706f73697461626c653a206e6f2054464320746f206465706f736974000060448201526064016104b4565b42821015610f8f5760405162461bcd60e51b815260206004820152603060248201527f4465706f73697461626c653a2052656c656173652074696d652069732062656660448201527f6f72652063757272656e742074696d650000000000000000000000000000000060648201526084016104b4565b6040805160a081018252348152602080820185815260009383018481526060840185815260808501878152600380546001810182559752855160049097027fc2575a0e9e593c00f959f8c92f12db2869c3395a3b0502d05e2516446f71f85b810197885593517fc2575a0e9e593c00f959f8c92f12db2869c3395a3b0502d05e2516446f71f85c85015591517fc2575a0e9e593c00f959f8c92f12db2869c3395a3b0502d05e2516446f71f85d84018054925115156101000261ff00199215159290921661ffff1990931692909217179055518051939485949093611098937fc2575a0e9e593c00f959f8c92f12db2869c3395a3b0502d05e2516446f71f85e01920190611101565b50506003547fd36a2f67d06d285786f61a32b052b9ace6b0b7abef5177b54358abdc83a0b69b91506110cc90600190611370565b600154604080519283526001600160a01b039091166020830152810185905234606082015260800160405180910390a1505050565b82805461110d90611393565b90600052602060002090601f01602090048101928261112f5760008555611175565b82601f1061114857805160ff1916838001178555611175565b82800160010185558215611175579182015b8281111561117557825182559160200191906001019061115a565b50611181929150611185565b5090565b5b808211156111815760008155600101611186565b6000602082840312156111ab578081fd5b5035919050565b600080604083850312156111c4578081fd5b8235915060208301356001600160a01b03811681146111e1578182fd5b809150509250929050565b6000602082840312156111fd578081fd5b81357fffffffff000000000000000000000000000000000000000000000000000000008116811461122c578182fd5b9392505050565b60008060408385031215611245578182fd5b82359150602083013567ffffffffffffffff80821115611263578283fd5b818501915085601f830112611276578283fd5b813581811115611288576112886113ce565b604051601f8201601f19908116603f011681019083821181831017156112b0576112b06113ce565b816040528281528860208487010111156112c8578586fd5b82602086016020830137856020848301015280955050505050509250929050565b60006020808352835181840152808401516040840152604084015115156060840152606084015115156080840152608084015160a08085015280518060c0860152835b818110156113485782810184015186820160e00152830161132c565b81811115611359578460e083880101525b50601f01601f19169390930160e001949350505050565b60008282101561138e57634e487b7160e01b81526011600452602481fd5b500390565b600181811c908216806113a757607f821691505b602082108114156113c857634e487b7160e01b600052602260045260246000fd5b50919050565b634e487b7160e01b600052604160045260246000fdfea2646970667358221220e9f367ca356254365cabcfb1597beaf198c4f1e8a61fe97a89b9d93ac6f25e5f64736f6c63430008030033",
  "linkReferences": {},
  "deployedLinkReferences": {}
}