{
  "_format": "hh-sol-artifact-1",
  "contractName": "Depositable",
  "sourceName": "contracts/Depositable.sol",
  "abi": [
    {
      "inputs": [
        {
          "internalType": "address payable",
          "name": "beneficiary_",
          "type": "address"
        },
        {
          "internalType": "address payable",
          "name": "punishPool_",
          "type": "address"
        }
      ],
      "stateMutability": "nonpayable",
      "type": "constructor"
    },
    {
      "anonymous": false,
      "inputs": [
        {
          "indexed": false,
          "internalType": "address",
          "name": "beneficiary",
          "type": "address"
        },
        {
          "indexed": false,
          "internalType": "uint256",
          "name": "releaseTime",
          "type": "uint256"
        },
        {
          "indexed": false,
          "internalType": "uint256",
          "name": "amount",
          "type": "uint256"
        }
      ],
      "name": "Deposit",
      "type": "event"
    },
    {
      "anonymous": false,
      "inputs": [
        {
          "indexed": false,
          "internalType": "address",
          "name": "beneficiary",
          "type": "address"
        },
        {
          "indexed": false,
          "internalType": "uint256",
          "name": "amount",
          "type": "uint256"
        }
      ],
      "name": "Punish",
      "type": "event"
    },
    {
      "anonymous": false,
      "inputs": [
        {
          "indexed": false,
          "internalType": "address",
          "name": "beneficiary",
          "type": "address"
        },
        {
          "indexed": false,
          "internalType": "uint256",
          "name": "enforcedReleaseTime",
          "type": "uint256"
        },
        {
          "indexed": false,
          "internalType": "uint256",
          "name": "realReleaseTime",
          "type": "uint256"
        },
        {
          "indexed": false,
          "internalType": "uint256",
          "name": "amount",
          "type": "uint256"
        }
      ],
      "name": "Release",
      "type": "event"
    },
    {
      "anonymous": false,
      "inputs": [
        {
          "indexed": true,
          "internalType": "bytes32",
          "name": "role",
          "type": "bytes32"
        },
        {
          "indexed": true,
          "internalType": "bytes32",
          "name": "previousAdminRole",
          "type": "bytes32"
        },
        {
          "indexed": true,
          "internalType": "bytes32",
          "name": "newAdminRole",
          "type": "bytes32"
        }
      ],
      "name": "RoleAdminChanged",
      "type": "event"
    },
    {
      "anonymous": false,
      "inputs": [
        {
          "indexed": true,
          "internalType": "bytes32",
          "name": "role",
          "type": "bytes32"
        },
        {
          "indexed": true,
          "internalType": "address",
          "name": "account",
          "type": "address"
        },
        {
          "indexed": true,
          "internalType": "address",
          "name": "sender",
          "type": "address"
        }
      ],
      "name": "RoleGranted",
      "type": "event"
    },
    {
      "anonymous": false,
      "inputs": [
        {
          "indexed": true,
          "internalType": "bytes32",
          "name": "role",
          "type": "bytes32"
        },
        {
          "indexed": true,
          "internalType": "address",
          "name": "account",
          "type": "address"
        },
        {
          "indexed": true,
          "internalType": "address",
          "name": "sender",
          "type": "address"
        }
      ],
      "name": "RoleRevoked",
      "type": "event"
    },
    {
      "inputs": [],
      "name": "DEFAULT_ADMIN_ROLE",
      "outputs": [
        {
          "internalType": "bytes32",
          "name": "",
          "type": "bytes32"
        }
      ],
      "stateMutability": "view",
      "type": "function"
    },
    {
      "inputs": [],
      "name": "DEPOSIT_ROLE",
      "outputs": [
        {
          "internalType": "bytes32",
          "name": "",
          "type": "bytes32"
        }
      ],
      "stateMutability": "view",
      "type": "function"
    },
    {
      "inputs": [],
      "name": "PUNISH_ROLE",
      "outputs": [
        {
          "internalType": "bytes32",
          "name": "",
          "type": "bytes32"
        }
      ],
      "stateMutability": "view",
      "type": "function"
    },
    {
      "inputs": [],
      "name": "beneficiary",
      "outputs": [
        {
          "internalType": "address payable",
          "name": "",
          "type": "address"
        }
      ],
      "stateMutability": "view",
      "type": "function"
    },
    {
      "inputs": [
        {
          "internalType": "uint256",
          "name": "index_",
          "type": "uint256"
        }
      ],
      "name": "deposit",
      "outputs": [
        {
          "components": [
            {
              "internalType": "uint256",
              "name": "amount",
              "type": "uint256"
            },
            {
              "internalType": "uint256",
              "name": "releaseTime",
              "type": "uint256"
            },
            {
              "internalType": "bool",
              "name": "punished",
              "type": "bool"
            },
            {
              "internalType": "bool",
              "name": "released",
              "type": "bool"
            },
            {
              "internalType": "string",
              "name": "comment",
              "type": "string"
            }
          ],
          "internalType": "struct Depositable.Dep",
          "name": "",
          "type": "tuple"
        }
      ],
      "stateMutability": "view",
      "type": "function"
    },
    {
      "inputs": [
        {
          "internalType": "uint256",
          "name": "releaseTime_",
          "type": "uint256"
        },
        {
          "internalType": "string",
          "name": "comment_",
          "type": "string"
        }
      ],
      "name": "deposit",
      "outputs": [],
      "stateMutability": "payable",
      "type": "function"
    },
    {
      "inputs": [
        {
          "internalType": "bytes32",
          "name": "role",
          "type": "bytes32"
        }
      ],
      "name": "getRoleAdmin",
      "outputs": [
        {
          "internalType": "bytes32",
          "name": "",
          "type": "bytes32"
        }
      ],
      "stateMutability": "view",
      "type": "function"
    },
    {
      "inputs": [
        {
          "internalType": "bytes32",
          "name": "role",
          "type": "bytes32"
        },
        {
          "internalType": "address",
          "name": "account",
          "type": "address"
        }
      ],
      "name": "grantRole",
      "outputs": [],
      "stateMutability": "nonpayable",
      "type": "function"
    },
    {
      "inputs": [
        {
          "internalType": "bytes32",
          "name": "role",
          "type": "bytes32"
        },
        {
          "internalType": "address",
          "name": "account",
          "type": "address"
        }
      ],
      "name": "hasRole",
      "outputs": [
        {
          "internalType": "bool",
          "name": "",
          "type": "bool"
        }
      ],
      "stateMutability": "view",
      "type": "function"
    },
    {
      "inputs": [
        {
          "internalType": "uint256",
          "name": "index_",
          "type": "uint256"
        }
      ],
      "name": "punish",
      "outputs": [],
      "stateMutability": "nonpayable",
      "type": "function"
    },
    {
      "inputs": [],
      "name": "punishPool",
      "outputs": [
        {
          "internalType": "address payable",
          "name": "",
          "type": "address"
        }
      ],
      "stateMutability": "view",
      "type": "function"
    },
    {
      "inputs": [
        {
          "internalType": "uint256",
          "name": "index_",
          "type": "uint256"
        }
      ],
      "name": "release",
      "outputs": [],
      "stateMutability": "nonpayable",
      "type": "function"
    },
    {
      "inputs": [
        {
          "internalType": "bytes32",
          "name": "role",
          "type": "bytes32"
        },
        {
          "internalType": "address",
          "name": "account",
          "type": "address"
        }
      ],
      "name": "renounceRole",
      "outputs": [],
      "stateMutability": "nonpayable",
      "type": "function"
    },
    {
      "inputs": [
        {
          "internalType": "bytes32",
          "name": "role",
          "type": "bytes32"
        },
        {
          "internalType": "address",
          "name": "account",
          "type": "address"
        }
      ],
      "name": "revokeRole",
      "outputs": [],
      "stateMutability": "nonpayable",
      "type": "function"
    },
    {
      "inputs": [
        {
          "internalType": "bytes4",
          "name": "interfaceId",
          "type": "bytes4"
        }
      ],
      "name": "supportsInterface",
      "outputs": [
        {
          "internalType": "bool",
          "name": "",
          "type": "bool"
        }
      ],
      "stateMutability": "view",
      "type": "function"
    }
  ],
  "bytecode": "0x60806040523480156200001157600080fd5b506040516200154538038062001545833981016040819052620000349162000140565b6200004160003362000073565b600180546001600160a01b039384166001600160a01b0319918216179091556002805492909316911617905562000177565b6200007f828262000083565b5050565b6000828152602081815260408083206001600160a01b038516845290915290205460ff166200007f576000828152602081815260408083206001600160a01b03851684529091529020805460ff19166001179055620000df3390565b6001600160a01b0316816001600160a01b0316837f2f8788117e7eff1d82e926ec794901d17c78024a50270940304540a733656f0d60405160405180910390a45050565b80516001600160a01b03811681146200013b57600080fd5b919050565b6000806040838503121562000153578182fd5b6200015e8362000123565b91506200016e6020840162000123565b90509250929050565b6113be80620001876000396000f3fe6080604052600436106100e85760003560e01c806338af3eed1161008a578063a217fddf11610059578063a217fddf146102e6578063b6b55f25146102fb578063d547741f14610328578063f1215d2514610348576100e8565b806338af3eed146102165780633ba9d5f71461024e57806351e444ce1461028257806391d14854146102a2576100e8565b80632f2ff15d116100c65780632f2ff15d14610182578063353efdcf146101a257806336568abe146101d657806337bdc99b146101f6576100e8565b806301ffc9a7146100ed5780631c04cebf14610122578063248a9ca314610144575b600080fd5b3480156100f957600080fd5b5061010d6101083660046111b3565b61035b565b60405190151581526020015b60405180910390f35b34801561012e57600080fd5b5061014261013d366004611161565b6103f4565b005b34801561015057600080fd5b5061017461015f366004611161565b60009081526020819052604090206001015490565b604051908152602001610119565b34801561018e57600080fd5b5061014261019d366004611179565b6104a9565b3480156101ae57600080fd5b506101747f2561bf26f818282a3be40719542054d2173eb0d38539e8a8d3cff22f29fd238481565b3480156101e257600080fd5b506101426101f1366004611179565b610546565b34801561020257600080fd5b50610142610211366004611161565b6105ce565b34801561022257600080fd5b50600154610236906001600160a01b031681565b6040516001600160a01b039091168152602001610119565b34801561025a57600080fd5b506101747fdd796a674049e64e697ba39011ca704e44dc374226c44390b929e9b04adfb99881565b34801561028e57600080fd5b50600254610236906001600160a01b031681565b3480156102ae57600080fd5b5061010d6102bd366004611179565b6000918252602082815260408084206001600160a01b0393909316845291905290205460ff1690565b3480156102f257600080fd5b50610174600081565b34801561030757600080fd5b5061031b610316366004611161565b61083d565b60405161011991906112b0565b34801561033457600080fd5b50610142610343366004611179565b6109d3565b6101426103563660046111fa565b610a60565b60007fffffffff0000000000000000000000000000000000000000000000000000000082167f7965db0b0000000000000000000000000000000000000000000000000000000014806103ee57507f01ffc9a7000000000000000000000000000000000000000000000000000000007fffffffff000000000000000000000000000000000000000000000000000000008316145b92915050565b3360009081527f042d271402c8b0a2dde1f234cd713ed24839077936be3418c521578feee536b9602052604090205460ff1661049d5760405162461bcd60e51b815260206004820152603560248201527f4465706f73697461626c653a2043616c6c657220646f6573206e6f742068617660448201527f652070726976696c65676520746f2070756e697368000000000000000000000060648201526084015b60405180910390fd5b6104a681610b0e565b50565b6000828152602081905260409020600101546104c6905b336102bd565b6105385760405162461bcd60e51b815260206004820152602f60248201527f416363657373436f6e74726f6c3a2073656e646572206d75737420626520616e60448201527f2061646d696e20746f206772616e7400000000000000000000000000000000006064820152608401610494565b6105428282610d87565b5050565b6001600160a01b03811633146105c45760405162461bcd60e51b815260206004820152602f60248201527f416363657373436f6e74726f6c3a2063616e206f6e6c792072656e6f756e636560448201527f20726f6c657320666f722073656c6600000000000000000000000000000000006064820152608401610494565b6105428282610e25565b60006105d98261083d565b905080602001514210156106555760405162461bcd60e51b815260206004820152603060248201527f4465706f73697461626c653a2043757272656e742074696d652069732062656660448201527f6f72652072656c656173652074696d65000000000000000000000000000000006064820152608401610494565b8060400151156106a75760405162461bcd60e51b815260206004820152601d60248201527f4465706f73697461626c653a204465706f7369742070756e69736865640000006044820152606401610494565b8060600151156107075760405162461bcd60e51b815260206004820152602560248201527f4465706f73697461626c653a204465706f73697420616c72656164792072656c60448201526419585cd95960da1b6064820152608401610494565b60015481516040516001600160a01b039092169181156108fc0291906000818181858888f19350505050158015610742573d6000803e3d6000fd5b5060016060820152600380548291908490811061076f57634e487b7160e01b600052603260045260246000fd5b600091825260209182902083516004909202019081558282015160018201556040830151600282018054606086015115156101000261ff00199315159390931661ffff19909116179190911790556080830151805191926107d8926003850192909101906110c8565b50506001546020838101518451604080516001600160a01b03909516855292840191909152429183019190915260608201527f6d0f8bf20fdbf0501c403fa7863679b821f006a63b09c689ee2687d00220edf991506080015b60405180910390a15050565b6108736040518060a001604052806000815260200160008152602001600015158152602001600015158152602001606081525090565b60035482106108c45760405162461bcd60e51b815260206004820152601f60248201527f4465706f73697461626c653a20496e646578206f7574206f662072616e6765006044820152606401610494565b600382815481106108e557634e487b7160e01b600052603260045260246000fd5b60009182526020918290206040805160a081018252600490930290910180548352600181015493830193909352600283015460ff8082161515928401929092526101009004161515606082015260038201805491929160808401919061094a90611337565b80601f016020809104026020016040519081016040528092919081815260200182805461097690611337565b80156109c35780601f10610998576101008083540402835291602001916109c3565b820191906000526020600020905b8154815290600101906020018083116109a657829003601f168201915b5050505050815250509050919050565b6000828152602081905260409020600101546109ee906104c0565b6105c45760405162461bcd60e51b815260206004820152603060248201527f416363657373436f6e74726f6c3a2073656e646572206d75737420626520616e60448201527f2061646d696e20746f207265766f6b65000000000000000000000000000000006064820152608401610494565b3360009081527f1d2212336a8094c2d6b1556a6593bc8bfe4d81ee6a63d158a870d84931aac374602052604090205460ff16610b045760405162461bcd60e51b815260206004820152603660248201527f4465706f73697461626c653a2043616c6c657220646f6573206e6f742068617660448201527f652070726976696c65676520746f206465706f736974000000000000000000006064820152608401610494565b6105428282610ea4565b6000610b198261083d565b90508060200151421015610b955760405162461bcd60e51b815260206004820152603060248201527f4465706f73697461626c653a2043757272656e742074696d652069732062656660448201527f6f72652072656c656173652074696d65000000000000000000000000000000006064820152608401610494565b806040015115610c0d5760405162461bcd60e51b815260206004820152602560248201527f4465706f73697461626c653a204465706f73697420616c72656164792070756e60448201527f69736865640000000000000000000000000000000000000000000000000000006064820152608401610494565b806060015115610c6d5760405162461bcd60e51b815260206004820152602560248201527f4465706f73697461626c653a204465706f73697420616c72656164792072656c60448201526419585cd95960da1b6064820152608401610494565b60025481516040516001600160a01b039092169181156108fc0291906000818181858888f19350505050158015610ca8573d6000803e3d6000fd5b50600160408201526003805482919084908110610cd557634e487b7160e01b600052603260045260246000fd5b600091825260209182902083516004909202019081558282015160018201556040830151600282018054606086015115156101000261ff00199315159390931661ffff1990911617919091179055608083015180519192610d3e926003850192909101906110c8565b50506001548251604080516001600160a01b03909316835260208301919091527febbcaaf6b9aa8b4083ae4b2f842c8de6f75319018e7b5e141a1e87aebadde6c3925001610831565b6000828152602081815260408083206001600160a01b038516845290915290205460ff16610542576000828152602081815260408083206001600160a01b03851684529091529020805460ff19166001179055610de13390565b6001600160a01b0316816001600160a01b0316837f2f8788117e7eff1d82e926ec794901d17c78024a50270940304540a733656f0d60405160405180910390a45050565b6000828152602081815260408083206001600160a01b038516845290915290205460ff1615610542576000828152602081815260408083206001600160a01b0385168085529252808320805460ff1916905551339285917ff6391f5c32d9c69d2a47ea670b442974b53935d1edc7fd64eb21e047a839171b9190a45050565b60003411610ef45760405162461bcd60e51b815260206004820152601e60248201527f4465706f73697461626c653a206e6f2054464320746f206465706f73697400006044820152606401610494565b42821015610f6a5760405162461bcd60e51b815260206004820152603060248201527f4465706f73697461626c653a2072656c656173652074696d652069732062656660448201527f6f72652063757272656e742074696d65000000000000000000000000000000006064820152608401610494565b6040805160a081018252348152602080820185815260009383018481526060840185815260808501878152600380546001810182559752855160049097027fc2575a0e9e593c00f959f8c92f12db2869c3395a3b0502d05e2516446f71f85b810197885593517fc2575a0e9e593c00f959f8c92f12db2869c3395a3b0502d05e2516446f71f85c85015591517fc2575a0e9e593c00f959f8c92f12db2869c3395a3b0502d05e2516446f71f85d84018054925115156101000261ff00199215159290921661ffff1990931692909217179055518051939485949093611073937fc2575a0e9e593c00f959f8c92f12db2869c3395a3b0502d05e2516446f71f85e019201906110c8565b5050600154604080516001600160a01b0390921682526020820186905234908201527f90890809c654f11d6e72a28fa60149770a0d11ec6c92319d6ceb2bb0a4ea1a15915060600160405180910390a1505050565b8280546110d490611337565b90600052602060002090601f0160209004810192826110f6576000855561113c565b82601f1061110f57805160ff191683800117855561113c565b8280016001018555821561113c579182015b8281111561113c578251825591602001919060010190611121565b5061114892915061114c565b5090565b5b80821115611148576000815560010161114d565b600060208284031215611172578081fd5b5035919050565b6000806040838503121561118b578081fd5b8235915060208301356001600160a01b03811681146111a8578182fd5b809150509250929050565b6000602082840312156111c4578081fd5b81357fffffffff00000000000000000000000000000000000000000000000000000000811681146111f3578182fd5b9392505050565b6000806040838503121561120c578182fd5b82359150602083013567ffffffffffffffff8082111561122a578283fd5b818501915085601f83011261123d578283fd5b81358181111561124f5761124f611372565b604051601f8201601f19908116603f0116810190838211818310171561127757611277611372565b8160405282815288602084870101111561128f578586fd5b82602086016020830137856020848301015280955050505050509250929050565b60006020808352835181840152808401516040840152604084015115156060840152606084015115156080840152608084015160a08085015280518060c0860152835b8181101561130f5782810184015186820160e0015283016112f3565b81811115611320578460e083880101525b50601f01601f19169390930160e001949350505050565b600181811c9082168061134b57607f821691505b6020821081141561136c57634e487b7160e01b600052602260045260246000fd5b50919050565b634e487b7160e01b600052604160045260246000fdfea264697066735822122062065986c59bba09b0c7a46a8a946311cd59f074b2b5cea5b5c8c2d9567eb95464736f6c63430008030033",
  "linkReferences": {},
  "deployedLinkReferences": {}
}